{"abi":[{"type":"constructor","inputs":[{"name":"_name","type":"string","internalType":"string"},{"name":"_symbol","type":"string","internalType":"string"},{"name":"_lzEndpoint","type":"address","internalType":"address"},{"name":"_delegate","type":"address","internalType":"address"}],"stateMutability":"nonpayable"},{"type":"function","name":"SEND","inputs":[],"outputs":[{"name":"","type":"uint16","internalType":"uint16"}],"stateMutability":"view"},{"type":"function","name":"SEND_AND_CALL","inputs":[],"outputs":[{"name":"","type":"uint16","internalType":"uint16"}],"stateMutability":"view"},{"type":"function","name":"allowInitializePath","inputs":[{"name":"origin","type":"tuple","internalType":"struct Origin","components":[{"name":"srcEid","type":"uint32","internalType":"uint32"},{"name":"sender","type":"bytes32","internalType":"bytes32"},{"name":"nonce","type":"uint64","internalType":"uint64"}]}],"outputs":[{"name":"","type":"bool","internalType":"bool"}],"stateMutability":"view"},{"type":"function","name":"allowance","inputs":[{"name":"owner","type":"address","internalType":"address"},{"name":"spender","type":"address","internalType":"address"}],"outputs":[{"name":"","type":"uint256","internalType":"uint256"}],"stateMutability":"view"},{"type":"function","name":"approvalRequired","inputs":[],"outputs":[{"name":"","type":"bool","internalType":"bool"}],"stateMutability":"pure"},{"type":"function","name":"approve","inputs":[{"name":"spender","type":"address","internalType":"address"},{"name":"value","type":"uint256","internalType":"uint256"}],"outputs":[{"name":"","type":"bool","internalType":"bool"}],"stateMutability":"nonpayable"},{"type":"function","name":"balanceOf","inputs":[{"name":"account","type":"address","internalType":"address"}],"outputs":[{"name":"","type":"uint256","internalType":"uint256"}],"stateMutability":"view"},{"type":"function","name":"burn","inputs":[{"name":"amount","type":"uint256","internalType":"uint256"}],"outputs":[],"stateMutability":"nonpayable"},{"type":"function","name":"burnFrom","inputs":[{"name":"from","type":"address","internalType":"address"},{"name":"amount","type":"uint256","internalType":"uint256"}],"outputs":[],"stateMutability":"nonpayable"},{"type":"function","name":"combineOptions","inputs":[{"name":"_eid","type":"uint32","internalType":"uint32"},{"name":"_msgType","type":"uint16","internalType":"uint16"},{"name":"_extraOptions","type":"bytes","internalType":"bytes"}],"outputs":[{"name":"","type":"bytes","internalType":"bytes"}],"stateMutability":"view"},{"type":"function","name":"decimalConversionRate","inputs":[],"outputs":[{"name":"","type":"uint256","internalType":"uint256"}],"stateMutability":"view"},{"type":"function","name":"decimals","inputs":[],"outputs":[{"name":"","type":"uint8","internalType":"uint8"}],"stateMutability":"view"},{"type":"function","name":"endpoint","inputs":[],"outputs":[{"name":"","type":"address","internalType":"contract ILayerZeroEndpointV2"}],"stateMutability":"view"},{"type":"function","name":"enforcedOptions","inputs":[{"name":"eid","type":"uint32","internalType":"uint32"},{"name":"msgType","type":"uint16","internalType":"uint16"}],"outputs":[{"name":"enforcedOption","type":"bytes","internalType":"bytes"}],"stateMutability":"view"},{"type":"function","name":"isComposeMsgSender","inputs":[{"name":"","type":"tuple","internalType":"struct Origin","components":[{"name":"srcEid","type":"uint32","internalType":"uint32"},{"name":"sender","type":"bytes32","internalType":"bytes32"},{"name":"nonce","type":"uint64","internalType":"uint64"}]},{"name":"","type":"bytes","internalType":"bytes"},{"name":"_sender","type":"address","internalType":"address"}],"outputs":[{"name":"","type":"bool","internalType":"bool"}],"stateMutability":"view"},{"type":"function","name":"isPeer","inputs":[{"name":"_eid","type":"uint32","internalType":"uint32"},{"name":"_peer","type":"bytes32","internalType":"bytes32"}],"outputs":[{"name":"","type":"bool","internalType":"bool"}],"stateMutability":"view"},{"type":"function","name":"lzReceive","inputs":[{"name":"_origin","type":"tuple","internalType":"struct Origin","components":[{"name":"srcEid","type":"uint32","internalType":"uint32"},{"name":"sender","type":"bytes32","internalType":"bytes32"},{"name":"nonce","type":"uint64","internalType":"uint64"}]},{"name":"_guid","type":"bytes32","internalType":"bytes32"},{"name":"_message","type":"bytes","internalType":"bytes"},{"name":"_executor","type":"address","internalType":"address"},{"name":"_extraData","type":"bytes","internalType":"bytes"}],"outputs":[],"stateMutability":"payable"},{"type":"function","name":"lzReceiveAndRevert","inputs":[{"name":"_packets","type":"tuple[]","internalType":"struct InboundPacket[]","components":[{"name":"origin","type":"tuple","internalType":"struct Origin","components":[{"name":"srcEid","type":"uint32","internalType":"uint32"},{"name":"sender","type":"bytes32","internalType":"bytes32"},{"name":"nonce","type":"uint64","internalType":"uint64"}]},{"name":"dstEid","type":"uint32","internalType":"uint32"},{"name":"receiver","type":"address","internalType":"address"},{"name":"guid","type":"bytes32","internalType":"bytes32"},{"name":"value","type":"uint256","internalType":"uint256"},{"name":"executor","type":"address","internalType":"address"},{"name":"message","type":"bytes","internalType":"bytes"},{"name":"extraData","type":"bytes","internalType":"bytes"}]}],"outputs":[],"stateMutability":"payable"},{"type":"function","name":"lzReceiveSimulate","inputs":[{"name":"_origin","type":"tuple","internalType":"struct Origin","components":[{"name":"srcEid","type":"uint32","internalType":"uint32"},{"name":"sender","type":"bytes32","internalType":"bytes32"},{"name":"nonce","type":"uint64","internalType":"uint64"}]},{"name":"_guid","type":"bytes32","internalType":"bytes32"},{"name":"_message","type":"bytes","internalType":"bytes"},{"name":"_executor","type":"address","internalType":"address"},{"name":"_extraData","type":"bytes","internalType":"bytes"}],"outputs":[],"stateMutability":"payable"},{"type":"function","name":"msgInspector","inputs":[],"outputs":[{"name":"","type":"address","internalType":"address"}],"stateMutability":"view"},{"type":"function","name":"name","inputs":[],"outputs":[{"name":"","type":"string","internalType":"string"}],"stateMutability":"view"},{"type":"function","name":"nextNonce","inputs":[{"name":"","type":"uint32","internalType":"uint32"},{"name":"","type":"bytes32","internalType":"bytes32"}],"outputs":[{"name":"nonce","type":"uint64","internalType":"uint64"}],"stateMutability":"view"},{"type":"function","name":"oApp","inputs":[],"outputs":[{"name":"","type":"address","internalType":"address"}],"stateMutability":"view"},{"type":"function","name":"oAppVersion","inputs":[],"outputs":[{"name":"senderVersion","type":"uint64","internalType":"uint64"},{"name":"receiverVersion","type":"uint64","internalType":"uint64"}],"stateMutability":"pure"},{"type":"function","name":"oftVersion","inputs":[],"outputs":[{"name":"interfaceId","type":"bytes4","internalType":"bytes4"},{"name":"version","type":"uint64","internalType":"uint64"}],"stateMutability":"pure"},{"type":"function","name":"owner","inputs":[],"outputs":[{"name":"","type":"address","internalType":"address"}],"stateMutability":"view"},{"type":"function","name":"peers","inputs":[{"name":"eid","type":"uint32","internalType":"uint32"}],"outputs":[{"name":"peer","type":"bytes32","internalType":"bytes32"}],"stateMutability":"view"},{"type":"function","name":"preCrime","inputs":[],"outputs":[{"name":"","type":"address","internalType":"address"}],"stateMutability":"view"},{"type":"function","name":"quoteOFT","inputs":[{"name":"_sendParam","type":"tuple","internalType":"struct SendParam","components":[{"name":"dstEid","type":"uint32","internalType":"uint32"},{"name":"to","type":"bytes32","internalType":"bytes32"},{"name":"amountLD","type":"uint256","internalType":"uint256"},{"name":"minAmountLD","type":"uint256","internalType":"uint256"},{"name":"extraOptions","type":"bytes","internalType":"bytes"},{"name":"composeMsg","type":"bytes","internalType":"bytes"},{"name":"oftCmd","type":"bytes","internalType":"bytes"}]}],"outputs":[{"name":"oftLimit","type":"tuple","internalType":"struct OFTLimit","components":[{"name":"minAmountLD","type":"uint256","internalType":"uint256"},{"name":"maxAmountLD","type":"uint256","internalType":"uint256"}]},{"name":"oftFeeDetails","type":"tuple[]","internalType":"struct OFTFeeDetail[]","components":[{"name":"feeAmountLD","type":"int256","internalType":"int256"},{"name":"description","type":"string","internalType":"string"}]},{"name":"oftReceipt","type":"tuple","internalType":"struct OFTReceipt","components":[{"name":"amountSentLD","type":"uint256","internalType":"uint256"},{"name":"amountReceivedLD","type":"uint256","internalType":"uint256"}]}],"stateMutability":"view"},{"type":"function","name":"quoteSend","inputs":[{"name":"_sendParam","type":"tuple","internalType":"struct SendParam","components":[{"name":"dstEid","type":"uint32","internalType":"uint32"},{"name":"to","type":"bytes32","internalType":"bytes32"},{"name":"amountLD","type":"uint256","internalType":"uint256"},{"name":"minAmountLD","type":"uint256","internalType":"uint256"},{"name":"extraOptions","type":"bytes","internalType":"bytes"},{"name":"composeMsg","type":"bytes","internalType":"bytes"},{"name":"oftCmd","type":"bytes","internalType":"bytes"}]},{"name":"_payInLzToken","type":"bool","internalType":"bool"}],"outputs":[{"name":"msgFee","type":"tuple","internalType":"struct MessagingFee","components":[{"name":"nativeFee","type":"uint256","internalType":"uint256"},{"name":"lzTokenFee","type":"uint256","internalType":"uint256"}]}],"stateMutability":"view"},{"type":"function","name":"renounceOwnership","inputs":[],"outputs":[],"stateMutability":"nonpayable"},{"type":"function","name":"send","inputs":[{"name":"_sendParam","type":"tuple","internalType":"struct SendParam","components":[{"name":"dstEid","type":"uint32","internalType":"uint32"},{"name":"to","type":"bytes32","internalType":"bytes32"},{"name":"amountLD","type":"uint256","internalType":"uint256"},{"name":"minAmountLD","type":"uint256","internalType":"uint256"},{"name":"extraOptions","type":"bytes","internalType":"bytes"},{"name":"composeMsg","type":"bytes","internalType":"bytes"},{"name":"oftCmd","type":"bytes","internalType":"bytes"}]},{"name":"_fee","type":"tuple","internalType":"struct MessagingFee","components":[{"name":"nativeFee","type":"uint256","internalType":"uint256"},{"name":"lzTokenFee","type":"uint256","internalType":"uint256"}]},{"name":"_refundAddress","type":"address","internalType":"address"}],"outputs":[{"name":"msgReceipt","type":"tuple","internalType":"struct MessagingReceipt","components":[{"name":"guid","type":"bytes32","internalType":"bytes32"},{"name":"nonce","type":"uint64","internalType":"uint64"},{"name":"fee","type":"tuple","internalType":"struct MessagingFee","components":[{"name":"nativeFee","type":"uint256","internalType":"uint256"},{"name":"lzTokenFee","type":"uint256","internalType":"uint256"}]}]},{"name":"oftReceipt","type":"tuple","internalType":"struct OFTReceipt","components":[{"name":"amountSentLD","type":"uint256","internalType":"uint256"},{"name":"amountReceivedLD","type":"uint256","internalType":"uint256"}]}],"stateMutability":"payable"},{"type":"function","name":"setDelegate","inputs":[{"name":"_delegate","type":"address","internalType":"address"}],"outputs":[],"stateMutability":"nonpayable"},{"type":"function","name":"setEnforcedOptions","inputs":[{"name":"_enforcedOptions","type":"tuple[]","internalType":"struct EnforcedOptionParam[]","components":[{"name":"eid","type":"uint32","internalType":"uint32"},{"name":"msgType","type":"uint16","internalType":"uint16"},{"name":"options","type":"bytes","internalType":"bytes"}]}],"outputs":[],"stateMutability":"nonpayable"},{"type":"function","name":"setMsgInspector","inputs":[{"name":"_msgInspector","type":"address","internalType":"address"}],"outputs":[],"stateMutability":"nonpayable"},{"type":"function","name":"setPeer","inputs":[{"name":"_eid","type":"uint32","internalType":"uint32"},{"name":"_peer","type":"bytes32","internalType":"bytes32"}],"outputs":[],"stateMutability":"nonpayable"},{"type":"function","name":"setPreCrime","inputs":[{"name":"_preCrime","type":"address","internalType":"address"}],"outputs":[],"stateMutability":"nonpayable"},{"type":"function","name":"sharedDecimals","inputs":[],"outputs":[{"name":"","type":"uint8","internalType":"uint8"}],"stateMutability":"view"},{"type":"function","name":"symbol","inputs":[],"outputs":[{"name":"","type":"string","internalType":"string"}],"stateMutability":"view"},{"type":"function","name":"token","inputs":[],"outputs":[{"name":"","type":"address","internalType":"address"}],"stateMutability":"view"},{"type":"function","name":"totalSupply","inputs":[],"outputs":[{"name":"","type":"uint256","internalType":"uint256"}],"stateMutability":"view"},{"type":"function","name":"transfer","inputs":[{"name":"to","type":"address","internalType":"address"},{"name":"value","type":"uint256","internalType":"uint256"}],"outputs":[{"name":"","type":"bool","internalType":"bool"}],"stateMutability":"nonpayable"},{"type":"function","name":"transferFrom","inputs":[{"name":"from","type":"address","internalType":"address"},{"name":"to","type":"address","internalType":"address"},{"name":"value","type":"uint256","internalType":"uint256"}],"outputs":[{"name":"","type":"bool","internalType":"bool"}],"stateMutability":"nonpayable"},{"type":"function","name":"transferOwnership","inputs":[{"name":"newOwner","type":"address","internalType":"address"}],"outputs":[],"stateMutability":"nonpayable"},{"type":"event","name":"Approval","inputs":[{"name":"owner","type":"address","indexed":true,"internalType":"address"},{"name":"spender","type":"address","indexed":true,"internalType":"address"},{"name":"value","type":"uint256","indexed":false,"internalType":"uint256"}],"anonymous":false},{"type":"event","name":"EnforcedOptionSet","inputs":[{"name":"_enforcedOptions","type":"tuple[]","indexed":false,"internalType":"struct EnforcedOptionParam[]","components":[{"name":"eid","type":"uint32","internalType":"uint32"},{"name":"msgType","type":"uint16","internalType":"uint16"},{"name":"options","type":"bytes","internalType":"bytes"}]}],"anonymous":false},{"type":"event","name":"MsgInspectorSet","inputs":[{"name":"inspector","type":"address","indexed":false,"internalType":"address"}],"anonymous":false},{"type":"event","name":"OFTReceived","inputs":[{"name":"guid","type":"bytes32","indexed":true,"internalType":"bytes32"},{"name":"srcEid","type":"uint32","indexed":false,"internalType":"uint32"},{"name":"toAddress","type":"address","indexed":true,"internalType":"address"},{"name":"amountReceivedLD","type":"uint256","indexed":false,"internalType":"uint256"}],"anonymous":false},{"type":"event","name":"OFTSent","inputs":[{"name":"guid","type":"bytes32","indexed":true,"internalType":"bytes32"},{"name":"dstEid","type":"uint32","indexed":false,"internalType":"uint32"},{"name":"fromAddress","type":"address","indexed":true,"internalType":"address"},{"name":"amountSentLD","type":"uint256","indexed":false,"internalType":"uint256"},{"name":"amountReceivedLD","type":"uint256","indexed":false,"internalType":"uint256"}],"anonymous":false},{"type":"event","name":"OwnershipTransferred","inputs":[{"name":"previousOwner","type":"address","indexed":true,"internalType":"address"},{"name":"newOwner","type":"address","indexed":true,"internalType":"address"}],"anonymous":false},{"type":"event","name":"PeerSet","inputs":[{"name":"eid","type":"uint32","indexed":false,"internalType":"uint32"},{"name":"peer","type":"bytes32","indexed":false,"internalType":"bytes32"}],"anonymous":false},{"type":"event","name":"PreCrimeSet","inputs":[{"name":"preCrimeAddress","type":"address","indexed":false,"internalType":"address"}],"anonymous":false},{"type":"event","name":"Transfer","inputs":[{"name":"from","type":"address","indexed":true,"internalType":"address"},{"name":"to","type":"address","indexed":true,"internalType":"address"},{"name":"value","type":"uint256","indexed":false,"internalType":"uint256"}],"anonymous":false},{"type":"error","name":"AddressEmptyCode","inputs":[{"name":"target","type":"address","internalType":"address"}]},{"type":"error","name":"AddressInsufficientBalance","inputs":[{"name":"account","type":"address","internalType":"address"}]},{"type":"error","name":"ERC20InsufficientAllowance","inputs":[{"name":"spender","type":"address","internalType":"address"},{"name":"allowance","type":"uint256","internalType":"uint256"},{"name":"needed","type":"uint256","internalType":"uint256"}]},{"type":"error","name":"ERC20InsufficientBalance","inputs":[{"name":"sender","type":"address","internalType":"address"},{"name":"balance","type":"uint256","internalType":"uint256"},{"name":"needed","type":"uint256","internalType":"uint256"}]},{"type":"error","name":"ERC20InvalidApprover","inputs":[{"name":"approver","type":"address","internalType":"address"}]},{"type":"error","name":"ERC20InvalidReceiver","inputs":[{"name":"receiver","type":"address","internalType":"address"}]},{"type":"error","name":"ERC20InvalidSender","inputs":[{"name":"sender","type":"address","internalType":"address"}]},{"type":"error","name":"ERC20InvalidSpender","inputs":[{"name":"spender","type":"address","internalType":"address"}]},{"type":"error","name":"FailedInnerCall","inputs":[]},{"type":"error","name":"InvalidDelegate","inputs":[]},{"type":"error","name":"InvalidEndpointCall","inputs":[]},{"type":"error","name":"InvalidLocalDecimals","inputs":[]},{"type":"error","name":"InvalidOptions","inputs":[{"name":"options","type":"bytes","internalType":"bytes"}]},{"type":"error","name":"LzTokenUnavailable","inputs":[]},{"type":"error","name":"NoPeer","inputs":[{"name":"eid","type":"uint32","internalType":"uint32"}]},{"type":"error","name":"NotEnoughNative","inputs":[{"name":"msgValue","type":"uint256","internalType":"uint256"}]},{"type":"error","name":"OnlyEndpoint","inputs":[{"name":"addr","type":"address","internalType":"address"}]},{"type":"error","name":"OnlyPeer","inputs":[{"name":"eid","type":"uint32","internalType":"uint32"},{"name":"sender","type":"bytes32","internalType":"bytes32"}]},{"type":"error","name":"OnlySelf","inputs":[]},{"type":"error","name":"OwnableInvalidOwner","inputs":[{"name":"owner","type":"address","internalType":"address"}]},{"type":"error","name":"OwnableUnauthorizedAccount","inputs":[{"name":"account","type":"address","internalType":"address"}]},{"type":"error","name":"SafeERC20FailedOperation","inputs":[{"name":"token","type":"address","internalType":"address"}]},{"type":"error","name":"SimulationResult","inputs":[{"name":"result","type":"bytes","internalType":"bytes"}]},{"type":"error","name":"SlippageExceeded","inputs":[{"name":"amountLD","type":"uint256","internalType":"uint256"},{"name":"minAmountLD","type":"uint256","internalType":"uint256"}]}],"bytecode":{"object":"0x60c08060405234610461575f906139e3803803809161001e8285610478565b83398101916080828403126104615781516001600160401b03811161046157836100499184016104af565b602083015190936001600160401b038211610461576100699184016104af565b9161007660408201610504565b906001600160a01b039061008c90606001610504565b168015610465575f80546001600160a01b0319811683178255604051939183916001600160a01b0316907f8be0079c531659141344cd1fd0a4f28419497f9722a3daafe3b4186f6b6457e09080a36001600160a01b03166080819052803b15610461576024835f8193819563ca5eb5e160e01b845260048401525af1801561045657610443575b50600160a05282516001600160401b03811161042f57600854600181811c91168015610425575b602082101461041157601f81116103ae575b506020601f821160011461034c57829394829392610341575b50508160011b915f199060031b1c1916176008555b8151906001600160401b03821161032d57600954600181811c91168015610323575b602082101461030f57601f81116102ac575b50602090601f831160011461024c57919283610241575b50508160011b915f199060031b1c1916176009555b6040516134ca908161051982396080518181816108b501528181610a0401528181610e45015281816111d701528181611ae70152818161317c0152613234015260a051818181610d6701528181611505015281816122ba015281816127090152612e3f0152f35b015190505f806101c5565b90601f1983169360098352818320925b8581106102945750836001951061027c575b505050811b016009556101da565b01515f1960f88460031b161c191690555f808061026e565b9192602060018192868501518155019401920161025c565b600982527f6e1540171b6c0c960b71a7020d9f60077f6af931a8bbf590da0223dacf75c7af601f840160051c81019160208510610305575b601f0160051c01905b8181106102fa57506101ae565b8281556001016102ed565b90915081906102e4565b634e487b7160e01b82526022600452602482fd5b90607f169061019c565b634e487b7160e01b81526041600452602490fd5b015190505f80610165565b6008835280832090601f198316845b8181106103965750958360019596971061037e575b505050811b0160085561017a565b01515f1960f88460031b161c191690555f8080610370565b9192602060018192868b01518155019401920161035b565b600883527ff3f7a9fe364faab93b216da50a3214154f22a0a2b415b23a84c8169e8b636ee3601f830160051c81019160208410610407575b601f0160051c01905b8181106103fc575061014c565b8381556001016103ef565b90915081906103e6565b634e487b7160e01b83526022600452602483fd5b90607f169061013a565b634e487b7160e01b82526041600452602482fd5b61044f91505f90610478565b5f5f610113565b6040513d5f823e3d90fd5b5f80fd5b631e4fbdf760e01b5f525f60045260245ffd5b601f909101601f19168101906001600160401b0382119082101761049b57604052565b634e487b7160e01b5f52604160045260245ffd5b81601f82011215610461578051906001600160401b03821161049b57604051926104e3601f8401601f191660200185610478565b8284526020838301011161046157815f9260208093018386015e8301015290565b51906001600160a01b03821682036104615756fe60806040526004361015610011575f80fd5b5f3560e01c806306fdde03146102ca578063095ea7b3146102c55780630d35b415146102c0578063111ecdad146102bb57806313137d65146102b6578063134d4f25146102b1578063156a0d0f146102ac57806317442b70146102a757806318160ddd146102a25780631f5e13341461029d57806323b872dd14610298578063313ce567146102575780633400288b146102935780633b6f743b1461028e57806342966c681461028957806352ae2879146102025780635535d461146102845780635a0dfe4d1461027f5780635e280f111461027a5780636fc1b31e1461027557806370a0823114610270578063715018a61461026b57806379cc6790146102665780637d25a05e1461026157806382413eac1461025c578063857749b0146102575780638da5cb5b1461025257806395d89b411461024d578063963efcaa146102485780639f68b96414610243578063a9059cbb1461023e578063b731ea0a14610239578063b98bd07014610234578063bb0b6a531461022f578063bc70b3541461022a578063bd815db014610225578063c7c7f5b314610220578063ca5eb5e11461021b578063d045a0dc14610216578063d424388514610211578063dd62ed3e1461020c578063f2fde38b14610207578063fc0c546a146102025763ff7bd03d146101fd575f80fd5b611d9e565b610f14565b611ccc565b611c51565b611bc0565b611b76565b611aaa565b611957565b611766565b611711565b6116d8565b6115f3565b61156c565b611542565b611528565b6114ee565b611449565b611417565b610c4a565b6113ab565b611385565b611351565b6112d5565b61128c565b6111fb565b6111ab565b611165565b6110ea565b610ef5565b610d02565b610c73565b610bff565b610be4565b610bc7565b610ba6565b610b66565b610b4b565b61088f565b6107ae565b610620565b61044a565b610334565b5f9103126102d957565b5f80fd5b907fffffffffffffffffffffffffffffffffffffffffffffffffffffffffffffffe0601f602080948051918291828752018686015e5f8582860101520116010190565b9060206103319281815201906102dd565b90565b346102d9575f6003193601126102d9576040515f60085461035481610f4e565b80845290600181169081156103ea575060011461038c575b6103888361037c818503826110a9565b60405191829182610320565b0390f35b60085f9081527ff3f7a9fe364faab93b216da50a3214154f22a0a2b415b23a84c8169e8b636ee3939250905b8082106103d05750909150810160200161037c61036c565b9192600181602092548385880101520191019092916103b8565b7fffffffffffffffffffffffffffffffffffffffffffffffffffffffffffffff001660208086019190915291151560051b8401909101915061037c905061036c565b73ffffffffffffffffffffffffffffffffffffffff8116036102d957565b346102d95760406003193601126102d9576004356104678161042c565b60243533156105285773ffffffffffffffffffffffffffffffffffffffff82169182156104fc576104c28291335f52600660205260405f209073ffffffffffffffffffffffffffffffffffffffff165f5260205260405f2090565b5560405190815233907f8c5be1e5ebec7d5bd14f71427d1e84f3dd0314c0f7b2291e5b200ac8c7c3b92590602090a3602060405160018152f35b7f94280d62000000000000000000000000000000000000000000000000000000005f525f60045260245ffd5b7fe602df05000000000000000000000000000000000000000000000000000000005f525f60045260245ffd5b908160e09103126102d95790565b9392919061057e8560a081019260208091805184520151910152565b60a06040860152815180915260c0850190602060c08260051b8801019301915f905b8282106105c657505050509060606105c49294019060208091805184520151910152565b565b90919293602080610612837fffffffffffffffffffffffffffffffffffffffffffffffffffffffffffffff408c600196030186526040838a5180518452015191818582015201906102dd565b9601920192019092916105a0565b346102d95760206003193601126102d95760043567ffffffffffffffff81116102d957610651903690600401610554565b610659611e01565b50610662611e01565b506040517ffc0c546a000000000000000000000000000000000000000000000000000000008152602081600481305afa90811561077c5773ffffffffffffffffffffffffffffffffffffffff916020915f91610781575b506004604051809481937f18160ddd000000000000000000000000000000000000000000000000000000008352165afa90811561077c575f9161074d575b50610700611de3565b905f82526020820152610388610731610717611e60565b93604081013561072b606083013592611ea6565b506122b1565b610739611de3565b918252602082015260405193849384610562565b61076f915060203d602011610775575b61076781836110a9565b810190611e39565b5f6106f7565b503d61075d565b611e2e565b6107a19150823d84116107a7575b61079981836110a9565b810190611e19565b5f6106b9565b503d61078f565b346102d9575f6003193601126102d957602073ffffffffffffffffffffffffffffffffffffffff60045416604051908152f35b60031960609101126102d957600490565b9181601f840112156102d95782359167ffffffffffffffff83116102d957602083818601950101116102d957565b90600319820160e081126102d9576060136102d9576004916064359160843567ffffffffffffffff81116102d9578261085b916004016107f2565b9290929160a43561086b8161042c565b9160c4359067ffffffffffffffff82116102d95761088b916004016107f2565b9091565b61089836610820565b50505090923373ffffffffffffffffffffffffffffffffffffffff7f00000000000000000000000000000000000000000000000000000000000000001603610b1f5780356108e581610c65565b6108ee8161231c565b906020830135809203610ae157505061092361090a8386612e12565b73ffffffffffffffffffffffffffffffffffffffff1690565b916109496109396109348388612e1e565b612e30565b61094284611ea6565b5084612e65565b948590602883116109c1575b50847fefed6d3500546b29533b128a29e3a94d70788727f0507505ac12eaf2e578fd9c73ffffffffffffffffffffffffffffffffffffffff866109bc61099a88611ea6565b956040519384931696836020909392919363ffffffff60408201951681520152565b0390a3005b906109ec92916109e66109d660408701612365565b936109e087611ea6565b92612f16565b92612f50565b9173ffffffffffffffffffffffffffffffffffffffff7f000000000000000000000000000000000000000000000000000000000000000016803b156102d957610a6a5f949185926040519687809481937f7cb590120000000000000000000000000000000000000000000000000000000083528b896004850161236f565b03925af192831561077c5761099a73ffffffffffffffffffffffffffffffffffffffff936109bc927fefed6d3500546b29533b128a29e3a94d70788727f0507505ac12eaf2e578fd9c96610ac7575b509350829450869150610955565b80610ad55f610adb936110a9565b806102cf565b5f610ab9565b80610af063ffffffff92610c65565b7fc26bebcc000000000000000000000000000000000000000000000000000000005f521660045260245260445ffd5b7f91ac5e4f000000000000000000000000000000000000000000000000000000005f523360045260245ffd5b346102d9575f6003193601126102d957602060405160028152f35b346102d9575f6003193601126102d957604080517f02e49c2c00000000000000000000000000000000000000000000000000000000815260016020820152f35b346102d9575f6003193601126102d957604080516001815260026020820152f35b346102d9575f6003193601126102d9576020600754604051908152f35b346102d9575f6003193601126102d957602060405160018152f35b346102d95760606003193601126102d957610c3f600435610c1f8161042c565b602435610c2b8161042c565b60443591610c3a8333836123a7565b6124d3565b602060405160018152f35b346102d9575f6003193601126102d957602060405160068152f35b63ffffffff8116036102d957565b346102d95760406003193601126102d9577f238399d427b947898edb290f5ff0f9109849b1c3ba196a42e35f00c50a54b98b600435610cb181610c65565b60243590610cbd61266c565b63ffffffff81165f5260016020528160405f2055610cf3604051928392836020909392919363ffffffff60408201951681520152565b0390a1005b801515036102d957565b346102d95760406003193601126102d95760043567ffffffffffffffff81116102d957610d33903690600401610554565b602435610d3f81610cf8565b610d47611e01565b50813591606081013590610d926040820135610d6286610c65565b610d8d7f00000000000000000000000000000000000000000000000000000000000000008092612dc3565b612dfa565b91808310610ec657610e2c604086610df887610dae88886126f2565b90610db885610c65565b610dc0611e01565b50610dca8561231c565b610de1610dd5611df2565b63ffffffff9097168752565b602086015285850152606084015215156080830152565b8151809381927fddc28c5800000000000000000000000000000000000000000000000000000000835230906004840161287c565b038173ffffffffffffffffffffffffffffffffffffffff7f0000000000000000000000000000000000000000000000000000000000000000165afa801561077c57610388915f91610e97575b5060405191829182815181526020918201519181019190915260400190565b610eb9915060403d604011610ebf575b610eb181836110a9565b810190612868565b82610e78565b503d610ea7565b827f71c4efed000000000000000000000000000000000000000000000000000000005f5260045260245260445ffd5b346102d95760206003193601126102d957610f1260043533612914565b005b346102d9575f6003193601126102d9576020604051308152f35b6024359061ffff821682036102d957565b359061ffff821682036102d957565b90600182811c92168015610f95575b6020831014610f6857565b7f4e487b71000000000000000000000000000000000000000000000000000000005f52602260045260245ffd5b91607f1691610f5d565b5f9291815491610fae83610f4e565b80835292600181169081156110035750600114610fca57505050565b5f9081526020812093945091925b838310610fe9575060209250010190565b600181602092949394548385870101520191019190610fd8565b905060209495507fffffffffffffffffffffffffffffffffffffffffffffffffffffffffffffff0091509291921683830152151560051b010190565b7f4e487b71000000000000000000000000000000000000000000000000000000005f52604160045260245ffd5b6060810190811067ffffffffffffffff82111761108857604052565b61103f565b6040810190811067ffffffffffffffff82111761108857604052565b90601f7fffffffffffffffffffffffffffffffffffffffffffffffffffffffffffffffe0910116810190811067ffffffffffffffff82111761108857604052565b346102d95760406003193601126102d95761038861114a61115161113e60043561111381610c65565b63ffffffff611120610f2e565b91165f52600360205260405f209061ffff165f5260205260405f2090565b60405192838092610f9f565b03826110a9565b6040519182916020835260208301906102dd565b346102d95760406003193601126102d95760206111a160043561118781610c65565b6024359063ffffffff165f52600160205260405f20541490565b6040519015158152f35b346102d9575f6003193601126102d957602060405173ffffffffffffffffffffffffffffffffffffffff7f0000000000000000000000000000000000000000000000000000000000000000168152f35b346102d95760206003193601126102d9577ff0be4f1e87349231d80c36b33f9e8639658eeaf474014dee15a3e6a4d4414197602073ffffffffffffffffffffffffffffffffffffffff6004356112508161042c565b61125861266c565b16807fffffffffffffffffffffffff00000000000000000000000000000000000000006004541617600455604051908152a1005b346102d95760206003193601126102d95773ffffffffffffffffffffffffffffffffffffffff6004356112be8161042c565b165f526005602052602060405f2054604051908152f35b346102d9575f6003193601126102d9576112ed61266c565b5f73ffffffffffffffffffffffffffffffffffffffff81547fffffffffffffffffffffffff000000000000000000000000000000000000000081168355167f8be0079c531659141344cd1fd0a4f28419497f9722a3daafe3b4186f6b6457e08280a3005b346102d95760406003193601126102d957610f126004356113718161042c565b602435906113808233836123a7565b612914565b346102d95760406003193601126102d9576113a1600435610c65565b60206040515f8152f35b346102d95760a06003193601126102d9576113c5366107e1565b5060643567ffffffffffffffff81116102d9576113e69036906004016107f2565b505060206084356113f68161042c565b6040519073ffffffffffffffffffffffffffffffffffffffff309116148152f35b346102d9575f6003193601126102d957602073ffffffffffffffffffffffffffffffffffffffff5f5416604051908152f35b346102d9575f6003193601126102d9576040515f60095461146981610f4e565b80845290600181169081156103ea5750600114611490576103888361037c818503826110a9565b60095f9081527f6e1540171b6c0c960b71a7020d9f60077f6af931a8bbf590da0223dacf75c7af939250905b8082106114d45750909150810160200161037c61036c565b9192600181602092548385880101520191019092916114bc565b346102d9575f6003193601126102d95760206040517f00000000000000000000000000000000000000000000000000000000000000008152f35b346102d9575f6003193601126102d95760206040515f8152f35b346102d95760406003193601126102d957610c3f6004356115628161042c565b60243590336124d3565b346102d9575f6003193601126102d957602073ffffffffffffffffffffffffffffffffffffffff60025416604051908152f35b9060206003198301126102d95760043567ffffffffffffffff81116102d95760040182601f820112156102d95780359267ffffffffffffffff84116102d9576020808301928560051b0101116102d9579190565b346102d9576116013661159f565b9061160a61266c565b61161382611e48565b9061162160405192836110a9565b828252602082019260051b8101903682116102d95780935b82851061164957610f1284612c3e565b843567ffffffffffffffff81116102d9578201906060823603126102d957604051916116748361106c565b803561167f81610c65565b835261168d60208201610f3f565b602084015260408101359067ffffffffffffffff82116102d957019036601f830112156102d9576020926116c8849336908581359101611eea565b6040820152815201940193611639565b346102d95760206003193601126102d95763ffffffff6004356116fa81610c65565b165f526001602052602060405f2054604051908152f35b346102d95760606003193601126102d95760043561172e81610c65565b611736610f2e565b6044359067ffffffffffffffff82116102d9576103889261175e6111519336906004016107f2565b929091612009565b61176f3661159f565b5f5b818110611810576040517f8e9e70990000000000000000000000000000000000000000000000000000000081525f81600481335afa801561077c576117ea915f916117ee575b506040519182917f8351eea700000000000000000000000000000000000000000000000000000000835260048301610320565b0390fd5b61180a91503d805f833e61180281836110a9565b810190612228565b826117b7565b61181b8183856120f1565b9061184b61184761182b84611ea6565b60208501359063ffffffff165f52600160205260405f20541490565b1590565b6118fc5760c08201359160a0810135611868610100830183612136565b94909161187760e08501612187565b93611886610120820182612136565b959095303b156102d9575f966118cc926040519a8b98899788977fd045a0dc000000000000000000000000000000000000000000000000000000008952600489016121a3565b0391305af191821561077c576001926118e8575b505b01611771565b80610ad55f6118f6936110a9565b5f6118e0565b600191506118e2565b9160806105c4929493611946604060c08301978051845267ffffffffffffffff60208201511660208501520151604083019060208091805184520151910152565b019060208091805184520151910152565b60806003193601126102d95760043567ffffffffffffffff81116102d957611983903690600401610554565b60407fffffffffffffffffffffffffffffffffffffffffffffffffffffffffffffffdc3601126102d9576064356119b98161042c565b6119c161228b565b506119ca611e01565b506119d361228b565b506119dc611e01565b506060820135906119f56040840135610d628535610c65565b91808310610ec65750611a2f90611a0c8333612914565b611a1683856126f2565b611a1f86611ea6565b91611a2936612d50565b926130d1565b90611a38611de3565b928184528160208501527f85496b760a4b7f8d66384b9df21b381f5d1b1e79f229a47aaf4c232edc2fe59a611a98611a71855193611ea6565b936040519181839233978460409194939263ffffffff606083019616825260208201520152565b0390a361038860405192839283611905565b346102d9575f60206003193601126102d957600435611ac88161042c565b611ad061266c565b73ffffffffffffffffffffffffffffffffffffffff7f00000000000000000000000000000000000000000000000000000000000000001690813b156102d95773ffffffffffffffffffffffffffffffffffffffff60245f928360405195869485937fca5eb5e10000000000000000000000000000000000000000000000000000000085521660048401525af1801561077c57611b6a575080f35b610f1291505f906110a9565b611b7f36610820565b5050509092303303611b985761092361090a8386612e12565b7f14d4a4e8000000000000000000000000000000000000000000000000000000005f5260045ffd5b346102d95760206003193601126102d9577fd48d879cef83a1c0bdda516f27b13ddb1b3f8bbac1c9e1511bb2a659c2427760602073ffffffffffffffffffffffffffffffffffffffff600435611c158161042c565b611c1d61266c565b16807fffffffffffffffffffffffff00000000000000000000000000000000000000006002541617600255604051908152a1005b346102d95760406003193601126102d9576020611cc3600435611c738161042c565b73ffffffffffffffffffffffffffffffffffffffff60243591611c958361042c565b165f526006835260405f209073ffffffffffffffffffffffffffffffffffffffff165f5260205260405f2090565b54604051908152f35b346102d95760206003193601126102d95773ffffffffffffffffffffffffffffffffffffffff600435611cfe8161042c565b611d0661266c565b168015611d725773ffffffffffffffffffffffffffffffffffffffff5f54827fffffffffffffffffffffffff00000000000000000000000000000000000000008216175f55167f8be0079c531659141344cd1fd0a4f28419497f9722a3daafe3b4186f6b6457e05f80a3005b7f1e4fbdf7000000000000000000000000000000000000000000000000000000005f525f60045260245ffd5b346102d95760606003193601126102d9576020611dba366107e1565b63ffffffff8135611dca81610c65565b165f52600182528160405f205491013560405191148152f35b604051906105c46040836110a9565b604051906105c460a0836110a9565b60405190611e0e8261108d565b5f6020838281520152565b908160209103126102d957516103318161042c565b6040513d5f823e3d90fd5b908160209103126102d9575190565b67ffffffffffffffff81116110885760051b60200190565b60405190611e6f6020836110a9565b5f80835282815b828110611e8257505050565b602090604051611e918161108d565b5f815260608382015282828501015201611e76565b3561033181610c65565b67ffffffffffffffff811161108857601f017fffffffffffffffffffffffffffffffffffffffffffffffffffffffffffffffe01660200190565b929192611ef682611eb0565b91611f0460405193846110a9565b8294818452818301116102d9578281602093845f960137010152565b90929192836002116102d95783116102d957600201917ffffffffffffffffffffffffffffffffffffffffffffffffffffffffffffffffe0190565b805191908290602001825e015f815290565b611f8793926105c492816040519687946020860190611f5b565b918237015f8152037fffffffffffffffffffffffffffffffffffffffffffffffffffffffffffffffe081018452836110a9565b601f82602094937fffffffffffffffffffffffffffffffffffffffffffffffffffffffffffffffe093818652868601375f8582860101520116010190565b916020610331938181520191611fba565b61113e61114a9263ffffffff61203a9397959697165f52600360205260405f209061ffff165f5260205260405f2090565b8051156120b65783156120b05760028410156120875750506117ea6040519283927f9a6d49cd00000000000000000000000000000000000000000000000000000000845260048401611ff8565b9092806120aa91610331946120a56120a0368484611eea565b612d00565b611f20565b91611f6d565b92509050565b509190610331913691611eea565b7f4e487b71000000000000000000000000000000000000000000000000000000005f52603260045260245ffd5b91908110156121315760051b810135907ffffffffffffffffffffffffffffffffffffffffffffffffffffffffffffffec1813603018212156102d9570190565b6120c4565b9035907fffffffffffffffffffffffffffffffffffffffffffffffffffffffffffffffe1813603018212156102d9570180359067ffffffffffffffff82116102d9576020019181360383136102d957565b356103318161042c565b67ffffffffffffffff8116036102d957565b926103319795969473ffffffffffffffffffffffffffffffffffffffff9367ffffffffffffffff60406122149563ffffffff81356121e081610c65565b168952602081013560208a015201356121f881612191565b166040870152606086015260e0608086015260e0850191611fba565b941660a082015260c0818503910152611fba565b6020818303126102d95780519067ffffffffffffffff82116102d9570181601f820112156102d95780519061225c82611eb0565b9261226a60405194856110a9565b828452602083830101116102d957815f9260208093018386015e8301015290565b604051906122988261106c565b815f81525f602082015260406122ac611e01565b910152565b6122e090610d8d7f00000000000000000000000000000000000000000000000000000000000000008092612dc3565b9182918084106122ed5750565b837f71c4efed000000000000000000000000000000000000000000000000000000005f5260045260245260445ffd5b63ffffffff16805f52600160205260405f205490811561233a575090565b7ff6ff4fb7000000000000000000000000000000000000000000000000000000005f5260045260245ffd5b3561033181612191565b610331939273ffffffffffffffffffffffffffffffffffffffff60809316825260208201525f604082015281606082015201906102dd565b73ffffffffffffffffffffffffffffffffffffffff909291921690815f5260066020526123f58360405f209073ffffffffffffffffffffffffffffffffffffffff165f5260205260405f2090565b547fffffffffffffffffffffffffffffffffffffffffffffffffffffffffffffffff8103612424575b50505050565b81811061248b5782156105285773ffffffffffffffffffffffffffffffffffffffff8416156104fc57612481925f526006602052039160405f209073ffffffffffffffffffffffffffffffffffffffff165f5260205260405f2090565b555f80808061241e565b73ffffffffffffffffffffffffffffffffffffffff847ffb8f41b2000000000000000000000000000000000000000000000000000000005f521660045260245260445260645ffd5b9173ffffffffffffffffffffffffffffffffffffffff83169182156126405773ffffffffffffffffffffffffffffffffffffffff8116938415612614576125388173ffffffffffffffffffffffffffffffffffffffff165f52600560205260405f2090565b548381106125c957916125b791612592857fddf252ad1be2c89b69c2b068fc378daa952ba7f163c4a11628f55a4df523b3ef9695039173ffffffffffffffffffffffffffffffffffffffff165f52600560205260405f2090565b5573ffffffffffffffffffffffffffffffffffffffff165f52600560205260405f2090565b805482019055604051908152602090a3565b7fe450d38c000000000000000000000000000000000000000000000000000000005f5273ffffffffffffffffffffffffffffffffffffffff909116600452602452604482905260645ffd5b7fec442f05000000000000000000000000000000000000000000000000000000005f525f60045260245ffd5b7f96c6fd1e000000000000000000000000000000000000000000000000000000005f525f60045260245ffd5b73ffffffffffffffffffffffffffffffffffffffff5f5416330361268c57565b7f118cdaa7000000000000000000000000000000000000000000000000000000005f523360045260245ffd5b908160209103126102d9575161033181610cf8565b90916126e4610331936040845260408401906102dd565b9160208184039101526102dd565b909161275861277e9361273b61272e6020860135927f000000000000000000000000000000000000000000000000000000000000000090612dc3565b67ffffffffffffffff1690565b61275261274b60a0870187612136565b3691611eea565b91612fef565b93909283945f14612838576002905b61175e61277382611ea6565b916080810190612136565b9173ffffffffffffffffffffffffffffffffffffffff6127b360045473ffffffffffffffffffffffffffffffffffffffff1690565b169083826127c057505050565b6127fc926020926040518095819482937f043a78eb000000000000000000000000000000000000000000000000000000008452600484016126cd565b03915afa801561077c5761280d5750565b61282e9060203d602011612831575b61282681836110a9565b8101906126b8565b50565b503d61281c565b600190612767565b91908260409103126102d9576040516128588161108d565b6020808294805184520151910152565b906040828203126102d95761033191612840565b9073ffffffffffffffffffffffffffffffffffffffff6020919493946040845263ffffffff815116604085015282810151606085015260806129036128cf604084015160a08489015260e08801906102dd565b60608401517fffffffffffffffffffffffffffffffffffffffffffffffffffffffffffffffc08883030160a08901526102dd565b910151151560c08501529416910152565b9073ffffffffffffffffffffffffffffffffffffffff82169182156126405761295b8173ffffffffffffffffffffffffffffffffffffffff165f52600560205260405f2090565b548281106129c957917fddf252ad1be2c89b69c2b068fc378daa952ba7f163c4a11628f55a4df523b3ef916129b3825f9695039173ffffffffffffffffffffffffffffffffffffffff165f52600560205260405f2090565b55600780548290039055604051908152602090a3565b7fe450d38c000000000000000000000000000000000000000000000000000000005f5273ffffffffffffffffffffffffffffffffffffffff90911660045260245260445260645ffd5b80518210156121315760209160051b010190565b601f8211612a3357505050565b5f5260205f20906020601f840160051c83019310612a6b575b601f0160051c01905b818110612a60575050565b5f8155600101612a55565b9091508190612a4c565b919091825167ffffffffffffffff811161108857612a9d81612a978454610f4e565b84612a26565b6020601f8211600114612afa578190612aeb9394955f92612aef575b50507fffffffffffffffffffffffffffffffffffffffffffffffffffffffffffffffff8260011b9260031b1c19161790565b9055565b015190505f80612ab9565b7fffffffffffffffffffffffffffffffffffffffffffffffffffffffffffffffe0821690612b2b845f5260205f2090565b915f5b818110612b8457509583600195969710612b4d575b505050811b019055565b01517fffffffffffffffffffffffffffffffffffffffffffffffffffffffffffffffff60f88460031b161c191690555f8080612b43565b9192602060018192868b015181550194019201612b2e565b602081016020825282518091526040820191602060408360051b8301019401925f915b838310612bce57505050505090565b9091929394602080612c2f837fffffffffffffffffffffffffffffffffffffffffffffffffffffffffffffffc08660019603018752606060408b5163ffffffff815116845261ffff86820151168685015201519181604082015201906102dd565b97019301930191939290612bbf565b5f5b8151811015612cc95780612c636040612c5b60019486612a12565b510151612d00565b612cc36040612c728386612a12565b51015163ffffffff612c848487612a12565b5151165f526003602052612cbe60405f20612cae6020612ca4878a612a12565b51015161ffff1690565b61ffff165f5260205260405f2090565b612a75565b01612c40565b50612cfb7fbe4864a8e820971c0247f5992e2da559595f7bf076a21cb5928d443d2a13b6749160405191829182612b9c565b0390a1565b600361ffff60028301511603612d135750565b6117ea906040519182917f9a6d49cd00000000000000000000000000000000000000000000000000000000835260206004840181815201906102dd565b7fffffffffffffffffffffffffffffffffffffffffffffffffffffffffffffffdc60409101126102d95760405190612d878261108d565b60243582526044356020830152565b7f4e487b71000000000000000000000000000000000000000000000000000000005f52601160045260245ffd5b8115612dcd570490565b7f4e487b71000000000000000000000000000000000000000000000000000000005f52601260045260245ffd5b81810292918115918404141715612e0d57565b612d96565b906020116102d9573590565b906028116102d9576020013560c01c90565b6103319067ffffffffffffffff7f00000000000000000000000000000000000000000000000000000000000000009116612dfa565b73ffffffffffffffffffffffffffffffffffffffff811615612f0d575b73ffffffffffffffffffffffffffffffffffffffff81169081156126145760075490838201809211612e0d57612ed99160075573ffffffffffffffffffffffffffffffffffffffff165f52600560205260405f2090565b8281540190555f7fddf252ad1be2c89b69c2b068fc378daa952ba7f163c4a11628f55a4df523b3ef6020604051858152a390565b5061dead612e82565b90806028116102d9577fffffffffffffffffffffffffffffffffffffffffffffffffffffffffffffffd86028610331930191013691611eea565b907fffffffffffffffff00000000000000000000000000000000000000000000000093610331937fffffffff00000000000000000000000000000000000000000000000000000000612fc39360405197889660c01b16602087015260e01b166028850152602c840152604c830190611f5b565b037fffffffffffffffffffffffffffffffffffffffffffffffffffffffffffffffe081018352826110a9565b8251158015939061304a5790612fc3613047927fffffffffffffffff000000000000000000000000000000000000000000000000604051958694602086015260c01b1660408401523360488401526068830190611f5b565b91565b50907fffffffffffffffff0000000000000000000000000000000000000000000000009060405192602084015260c01b166040820152602881526130476048826110a9565b906080828203126102d9576130c99060408051936130ac8561106c565b8051855260208101516130be81612191565b602086015201612840565b604082015290565b61312e6080949261316396946130e561228b565b5060206130f286516131e7565b9501918251806131d8575b506131078561231c565b9251151592613117610dd5611df2565b602086015260408501526060840152151585830152565b6040518095819482937f2637a4500000000000000000000000000000000000000000000000000000000084526004840161287c565b039173ffffffffffffffffffffffffffffffffffffffff7f0000000000000000000000000000000000000000000000000000000000000000165af190811561077c575f916131af575090565b610331915060803d6080116131d1575b6131c981836110a9565b81019061308f565b503d6131bf565b6131e19061321d565b5f6130fd565b8034036131f15790565b7f9f704120000000000000000000000000000000000000000000000000000000005f523460045260245ffd5b73ffffffffffffffffffffffffffffffffffffffff7f000000000000000000000000000000000000000000000000000000000000000016906040517fe4fe1d94000000000000000000000000000000000000000000000000000000008152602081600481865afa801561077c5773ffffffffffffffffffffffffffffffffffffffff915f916133dc575b50169182156133b4575f8091613337936040519060208201927f23b872dd00000000000000000000000000000000000000000000000000000000845233602484015260448301526064820152606481526133026084826110a9565b519082865af13d156133ac573d9061331982611eb0565b9161332760405193846110a9565b82523d5f602084013e5b836133fb565b805190811515918261338e575b505061334d5750565b7f5274afe7000000000000000000000000000000000000000000000000000000005f5273ffffffffffffffffffffffffffffffffffffffff1660045260245ffd5b6133a59250906020806118479383010191016126b8565b5f80613344565b606090613331565b7f5373352a000000000000000000000000000000000000000000000000000000005f5260045ffd5b6133f5915060203d6020116107a75761079981836110a9565b5f6132a7565b90613438575080511561341057805190602001fd5b7f1425ea42000000000000000000000000000000000000000000000000000000005f5260045ffd5b8151158061348b575b613449575090565b73ffffffffffffffffffffffffffffffffffffffff907f9996b315000000000000000000000000000000000000000000000000000000005f521660045260245ffd5b50803b1561344156fea2646970667358221220183d9bcb203169765812036c14ef7859b3a69d453c92936f12c536c1b620eaec64736f6c634300081c0033","linkReferences":{}},"methodIdentifiers":{"SEND()":"1f5e1334","SEND_AND_CALL()":"134d4f25","allowInitializePath((uint32,bytes32,uint64))":"ff7bd03d","allowance(address,address)":"dd62ed3e","approvalRequired()":"9f68b964","approve(address,uint256)":"095ea7b3","balanceOf(address)":"70a08231","burn(uint256)":"42966c68","burnFrom(address,uint256)":"79cc6790","combineOptions(uint32,uint16,bytes)":"bc70b354","decimalConversionRate()":"963efcaa","decimals()":"313ce567","endpoint()":"5e280f11","enforcedOptions(uint32,uint16)":"5535d461","isComposeMsgSender((uint32,bytes32,uint64),bytes,address)":"82413eac","isPeer(uint32,bytes32)":"5a0dfe4d","lzReceive((uint32,bytes32,uint64),bytes32,bytes,address,bytes)":"13137d65","lzReceiveAndRevert(((uint32,bytes32,uint64),uint32,address,bytes32,uint256,address,bytes,bytes)[])":"bd815db0","lzReceiveSimulate((uint32,bytes32,uint64),bytes32,bytes,address,bytes)":"d045a0dc","msgInspector()":"111ecdad","name()":"06fdde03","nextNonce(uint32,bytes32)":"7d25a05e","oApp()":"52ae2879","oAppVersion()":"17442b70","oftVersion()":"156a0d0f","owner()":"8da5cb5b","peers(uint32)":"bb0b6a53","preCrime()":"b731ea0a","quoteOFT((uint32,bytes32,uint256,uint256,bytes,bytes,bytes))":"0d35b415","quoteSend((uint32,bytes32,uint256,uint256,bytes,bytes,bytes),bool)":"3b6f743b","renounceOwnership()":"715018a6","send((uint32,bytes32,uint256,uint256,bytes,bytes,bytes),(uint256,uint256),address)":"c7c7f5b3","setDelegate(address)":"ca5eb5e1","setEnforcedOptions((uint32,uint16,bytes)[])":"b98bd070","setMsgInspector(address)":"6fc1b31e","setPeer(uint32,bytes32)":"3400288b","setPreCrime(address)":"d4243885","sharedDecimals()":"857749b0","symbol()":"95d89b41","token()":"fc0c546a","totalSupply()":"18160ddd","transfer(address,uint256)":"a9059cbb","transferFrom(address,address,uint256)":"23b872dd","transferOwnership(address)":"f2fde38b"},"id":0}