{"abi":[{"type":"constructor","inputs":[{"name":"asset_","type":"address","internalType":"contract IERC20"},{"name":"name_","type":"string","internalType":"string"},{"name":"symbol_","type":"string","internalType":"string"}],"stateMutability":"nonpayable"},{"type":"function","name":"allowance","inputs":[{"name":"owner","type":"address","internalType":"address"},{"name":"spender","type":"address","internalType":"address"}],"outputs":[{"name":"","type":"uint256","internalType":"uint256"}],"stateMutability":"view"},{"type":"function","name":"approve","inputs":[{"name":"spender","type":"address","internalType":"address"},{"name":"value","type":"uint256","internalType":"uint256"}],"outputs":[{"name":"","type":"bool","internalType":"bool"}],"stateMutability":"nonpayable"},{"type":"function","name":"asset","inputs":[],"outputs":[{"name":"","type":"address","internalType":"address"}],"stateMutability":"view"},{"type":"function","name":"balanceOf","inputs":[{"name":"account","type":"address","internalType":"address"}],"outputs":[{"name":"","type":"uint256","internalType":"uint256"}],"stateMutability":"view"},{"type":"function","name":"claimRedeem","inputs":[{"name":"shares","type":"uint256","internalType":"uint256"},{"name":"receiver","type":"address","internalType":"address"},{"name":"controller","type":"address","internalType":"address"}],"outputs":[{"name":"assets","type":"uint256","internalType":"uint256"}],"stateMutability":"nonpayable"},{"type":"function","name":"claimRedeemToChain","inputs":[{"name":"shares","type":"uint256","internalType":"uint256"},{"name":"receiver","type":"address","internalType":"address"},{"name":"controller","type":"address","internalType":"address"},{"name":"dstEid","type":"uint32","internalType":"uint32"},{"name":"minAssets","type":"uint256","internalType":"uint256"},{"name":"options","type":"bytes","internalType":"bytes"},{"name":"assetOFT","type":"address","internalType":"contract IAssetOFT"}],"outputs":[{"name":"assets","type":"uint256","internalType":"uint256"}],"stateMutability":"payable"},{"type":"function","name":"claimableRedeem","inputs":[{"name":"","type":"address","internalType":"address"}],"outputs":[{"name":"","type":"uint256","internalType":"uint256"}],"stateMutability":"view"},{"type":"function","name":"convertToAssets","inputs":[{"name":"shares","type":"uint256","internalType":"uint256"}],"outputs":[{"name":"","type":"uint256","internalType":"uint256"}],"stateMutability":"view"},{"type":"function","name":"convertToShares","inputs":[{"name":"assets","type":"uint256","internalType":"uint256"}],"outputs":[{"name":"","type":"uint256","internalType":"uint256"}],"stateMutability":"view"},{"type":"function","name":"decimals","inputs":[],"outputs":[{"name":"","type":"uint8","internalType":"uint8"}],"stateMutability":"view"},{"type":"function","name":"deposit","inputs":[{"name":"assets","type":"uint256","internalType":"uint256"},{"name":"receiver","type":"address","internalType":"address"}],"outputs":[{"name":"","type":"uint256","internalType":"uint256"}],"stateMutability":"nonpayable"},{"type":"function","name":"isOperator","inputs":[{"name":"controller","type":"address","internalType":"address"},{"name":"operator","type":"address","internalType":"address"}],"outputs":[{"name":"","type":"bool","internalType":"bool"}],"stateMutability":"view"},{"type":"function","name":"managerMarkClaimable","inputs":[{"name":"controller","type":"address","internalType":"address"},{"name":"shares","type":"uint256","internalType":"uint256"}],"outputs":[],"stateMutability":"nonpayable"},{"type":"function","name":"maxDeposit","inputs":[{"name":"","type":"address","internalType":"address"}],"outputs":[{"name":"","type":"uint256","internalType":"uint256"}],"stateMutability":"view"},{"type":"function","name":"maxMint","inputs":[{"name":"","type":"address","internalType":"address"}],"outputs":[{"name":"","type":"uint256","internalType":"uint256"}],"stateMutability":"view"},{"type":"function","name":"maxRedeem","inputs":[{"name":"owner","type":"address","internalType":"address"}],"outputs":[{"name":"","type":"uint256","internalType":"uint256"}],"stateMutability":"view"},{"type":"function","name":"maxWithdraw","inputs":[{"name":"owner","type":"address","internalType":"address"}],"outputs":[{"name":"","type":"uint256","internalType":"uint256"}],"stateMutability":"view"},{"type":"function","name":"mint","inputs":[{"name":"shares","type":"uint256","internalType":"uint256"},{"name":"receiver","type":"address","internalType":"address"}],"outputs":[{"name":"","type":"uint256","internalType":"uint256"}],"stateMutability":"nonpayable"},{"type":"function","name":"name","inputs":[],"outputs":[{"name":"","type":"string","internalType":"string"}],"stateMutability":"view"},{"type":"function","name":"operatorApproval","inputs":[{"name":"","type":"address","internalType":"address"},{"name":"","type":"address","internalType":"address"}],"outputs":[{"name":"","type":"bool","internalType":"bool"}],"stateMutability":"view"},{"type":"function","name":"pendingRedeem","inputs":[{"name":"","type":"address","internalType":"address"}],"outputs":[{"name":"","type":"uint256","internalType":"uint256"}],"stateMutability":"view"},{"type":"function","name":"previewDeposit","inputs":[{"name":"assets","type":"uint256","internalType":"uint256"}],"outputs":[{"name":"","type":"uint256","internalType":"uint256"}],"stateMutability":"view"},{"type":"function","name":"previewMint","inputs":[{"name":"shares","type":"uint256","internalType":"uint256"}],"outputs":[{"name":"","type":"uint256","internalType":"uint256"}],"stateMutability":"view"},{"type":"function","name":"previewRedeem","inputs":[{"name":"","type":"uint256","internalType":"uint256"}],"outputs":[{"name":"","type":"uint256","internalType":"uint256"}],"stateMutability":"pure"},{"type":"function","name":"previewWithdraw","inputs":[{"name":"","type":"uint256","internalType":"uint256"}],"outputs":[{"name":"","type":"uint256","internalType":"uint256"}],"stateMutability":"pure"},{"type":"function","name":"redeem","inputs":[{"name":"shares","type":"uint256","internalType":"uint256"},{"name":"receiver","type":"address","internalType":"address"},{"name":"owner","type":"address","internalType":"address"}],"outputs":[{"name":"","type":"uint256","internalType":"uint256"}],"stateMutability":"nonpayable"},{"type":"function","name":"requestRedeem","inputs":[{"name":"shares","type":"uint256","internalType":"uint256"},{"name":"controller","type":"address","internalType":"address"},{"name":"owner","type":"address","internalType":"address"}],"outputs":[{"name":"","type":"uint256","internalType":"uint256"}],"stateMutability":"nonpayable"},{"type":"function","name":"setOperator","inputs":[{"name":"operator","type":"address","internalType":"address"},{"name":"approved","type":"bool","internalType":"bool"}],"outputs":[{"name":"","type":"bool","internalType":"bool"}],"stateMutability":"nonpayable"},{"type":"function","name":"supportsInterface","inputs":[{"name":"id","type":"bytes4","internalType":"bytes4"}],"outputs":[{"name":"","type":"bool","internalType":"bool"}],"stateMutability":"pure"},{"type":"function","name":"symbol","inputs":[],"outputs":[{"name":"","type":"string","internalType":"string"}],"stateMutability":"view"},{"type":"function","name":"totalAssets","inputs":[],"outputs":[{"name":"","type":"uint256","internalType":"uint256"}],"stateMutability":"view"},{"type":"function","name":"totalSupply","inputs":[],"outputs":[{"name":"","type":"uint256","internalType":"uint256"}],"stateMutability":"view"},{"type":"function","name":"transfer","inputs":[{"name":"to","type":"address","internalType":"address"},{"name":"value","type":"uint256","internalType":"uint256"}],"outputs":[{"name":"","type":"bool","internalType":"bool"}],"stateMutability":"nonpayable"},{"type":"function","name":"transferFrom","inputs":[{"name":"from","type":"address","internalType":"address"},{"name":"to","type":"address","internalType":"address"},{"name":"value","type":"uint256","internalType":"uint256"}],"outputs":[{"name":"","type":"bool","internalType":"bool"}],"stateMutability":"nonpayable"},{"type":"function","name":"withdraw","inputs":[{"name":"assets","type":"uint256","internalType":"uint256"},{"name":"receiver","type":"address","internalType":"address"},{"name":"owner","type":"address","internalType":"address"}],"outputs":[{"name":"","type":"uint256","internalType":"uint256"}],"stateMutability":"nonpayable"},{"type":"event","name":"Approval","inputs":[{"name":"owner","type":"address","indexed":true,"internalType":"address"},{"name":"spender","type":"address","indexed":true,"internalType":"address"},{"name":"value","type":"uint256","indexed":false,"internalType":"uint256"}],"anonymous":false},{"type":"event","name":"Deposit","inputs":[{"name":"sender","type":"address","indexed":true,"internalType":"address"},{"name":"owner","type":"address","indexed":true,"internalType":"address"},{"name":"assets","type":"uint256","indexed":false,"internalType":"uint256"},{"name":"shares","type":"uint256","indexed":false,"internalType":"uint256"}],"anonymous":false},{"type":"event","name":"RedeemRequest","inputs":[{"name":"controller","type":"address","indexed":true,"internalType":"address"},{"name":"owner","type":"address","indexed":true,"internalType":"address"},{"name":"requestId","type":"uint256","indexed":true,"internalType":"uint256"},{"name":"sender","type":"address","indexed":false,"internalType":"address"},{"name":"shares","type":"uint256","indexed":false,"internalType":"uint256"}],"anonymous":false},{"type":"event","name":"Transfer","inputs":[{"name":"from","type":"address","indexed":true,"internalType":"address"},{"name":"to","type":"address","indexed":true,"internalType":"address"},{"name":"value","type":"uint256","indexed":false,"internalType":"uint256"}],"anonymous":false},{"type":"event","name":"Withdraw","inputs":[{"name":"sender","type":"address","indexed":true,"internalType":"address"},{"name":"receiver","type":"address","indexed":true,"internalType":"address"},{"name":"owner","type":"address","indexed":true,"internalType":"address"},{"name":"assets","type":"uint256","indexed":false,"internalType":"uint256"},{"name":"shares","type":"uint256","indexed":false,"internalType":"uint256"}],"anonymous":false},{"type":"error","name":"AddressEmptyCode","inputs":[{"name":"target","type":"address","internalType":"address"}]},{"type":"error","name":"AddressInsufficientBalance","inputs":[{"name":"account","type":"address","internalType":"address"}]},{"type":"error","name":"AsyncPreview","inputs":[]},{"type":"error","name":"ERC20InsufficientAllowance","inputs":[{"name":"spender","type":"address","internalType":"address"},{"name":"allowance","type":"uint256","internalType":"uint256"},{"name":"needed","type":"uint256","internalType":"uint256"}]},{"type":"error","name":"ERC20InsufficientBalance","inputs":[{"name":"sender","type":"address","internalType":"address"},{"name":"balance","type":"uint256","internalType":"uint256"},{"name":"needed","type":"uint256","internalType":"uint256"}]},{"type":"error","name":"ERC20InvalidApprover","inputs":[{"name":"approver","type":"address","internalType":"address"}]},{"type":"error","name":"ERC20InvalidReceiver","inputs":[{"name":"receiver","type":"address","internalType":"address"}]},{"type":"error","name":"ERC20InvalidSender","inputs":[{"name":"sender","type":"address","internalType":"address"}]},{"type":"error","name":"ERC20InvalidSpender","inputs":[{"name":"spender","type":"address","internalType":"address"}]},{"type":"error","name":"ERC4626ExceededMaxDeposit","inputs":[{"name":"receiver","type":"address","internalType":"address"},{"name":"assets","type":"uint256","internalType":"uint256"},{"name":"max","type":"uint256","internalType":"uint256"}]},{"type":"error","name":"ERC4626ExceededMaxMint","inputs":[{"name":"receiver","type":"address","internalType":"address"},{"name":"shares","type":"uint256","internalType":"uint256"},{"name":"max","type":"uint256","internalType":"uint256"}]},{"type":"error","name":"ERC4626ExceededMaxRedeem","inputs":[{"name":"owner","type":"address","internalType":"address"},{"name":"shares","type":"uint256","internalType":"uint256"},{"name":"max","type":"uint256","internalType":"uint256"}]},{"type":"error","name":"ERC4626ExceededMaxWithdraw","inputs":[{"name":"owner","type":"address","internalType":"address"},{"name":"assets","type":"uint256","internalType":"uint256"},{"name":"max","type":"uint256","internalType":"uint256"}]},{"type":"error","name":"FailedInnerCall","inputs":[]},{"type":"error","name":"Insufficient","inputs":[]},{"type":"error","name":"MathOverflowedMulDiv","inputs":[]},{"type":"error","name":"NotController","inputs":[]},{"type":"error","name":"ReentrancyGuardReentrantCall","inputs":[]},{"type":"error","name":"SafeERC20FailedOperation","inputs":[{"name":"token","type":"address","internalType":"address"}]}],"bytecode":{"object":"0x60c0806040523461037f576120a1803803809161001c8285610383565b833981019060608183031261037f578051906001600160a01b038216820361037f5760208101516001600160401b03811161037f578361005d9183016103c1565b60408201519093906001600160401b03811161037f5761007d92016103c1565b82519091906001600160401b03811161029057600354600181811c91168015610375575b602082101461027257601f8111610312575b506020601f82116001146102af57819293945f926102a4575b50508160011b915f199060031b1c1916176003555b81516001600160401b03811161029057600454600181811c91168015610286575b602082101461027257601f811161020f575b50602092601f82116001146101ae57928192935f926101a3575b50508160011b915f199060031b1c1916176004555b61014c81610407565b901561019b575b60a0526080526001600555604051611bf690816104ab823960805181818161060401528181610ad301528181610ec2015281816112fc0152611800015260a05181610b0b0152f35b506012610153565b015190505f8061012e565b601f1982169360045f52805f20915f5b8681106101f757508360019596106101df575b505050811b01600455610143565b01515f1960f88460031b161c191690555f80806101d1565b919260206001819286850151815501940192016101be565b60045f527f8a35acfbc15ff81a39ae7d344fd709f28e8600b4aa8c65c6b64bfe7fe36bd19b601f830160051c81019160208410610268575b601f0160051c01905b81811061025d5750610114565b5f8155600101610250565b9091508190610247565b634e487b7160e01b5f52602260045260245ffd5b90607f1690610102565b634e487b7160e01b5f52604160045260245ffd5b015190505f806100cc565b601f1982169060035f52805f20915f5b8181106102fa575095836001959697106102e2575b505050811b016003556100e1565b01515f1960f88460031b161c191690555f80806102d4565b9192602060018192868b0151815501940192016102bf565b60035f527fc2575a0e9e593c00f959f8c92f12db2869c3395a3b0502d05e2516446f71f85b601f830160051c8101916020841061036b575b601f0160051c01905b81811061036057506100b3565b5f8155600101610353565b909150819061034a565b90607f16906100a1565b5f80fd5b601f909101601f19168101906001600160401b0382119082101761029057604052565b6001600160401b03811161029057601f01601f191660200190565b81601f8201121561037f578051906103d8826103a6565b926103e66040519485610383565b8284526020838301011161037f57815f9260208093018386015e8301015290565b5f8091604051602081019063313ce56760e01b82526004815261042b602482610383565b51916001600160a01b03165afa3d156104a2573d90610449826103a6565b916104576040519384610383565b82523d5f602084013e5b80610496575b610473575b505f905f90565b60208180518101031261037f576020015160ff811161046c579060ff6001921690565b50602081511015610467565b60609061046156fe60806040526004361015610011575f80fd5b5f3560e01c806301e1d114146110ae57806301ffc9a71461104357806306347c6314610d8057806306fdde0314610cc557806307a2d13a14610ca7578063095ea7b314610bc05780630a28a47714610a5d57806318160ddd14610ba357806323b872dd14610b6b578063313ce56714610af757806338d52e0f14610aa7578063402d267d1461033a57806340bc782e14610a625780634cdad50614610a5d578063558a7297146109d35780636e553f65146109a057806370a082311461021157806374c0fddb1461095b5780637d41c86e146108b057806394bf804d1461087d57806395d89b4114610742578063a4b31e9d14610544578063a9059cbb14610513578063a9fb2d81146103f0578063b3d7f6b9146104f5578063b460af9414610463578063b6363cf2146103f0578063ba0876521461033f578063c63d75b61461033a578063c6e6f5921461019a578063cb06ba661461027e578063ce96cb771461025b578063d905777e14610211578063dd62ed3e1461019f5763ef8b30f71461019a575f80fd5b611227565b3461020d57604060031936011261020d576101b86110eb565b73ffffffffffffffffffffffffffffffffffffffff6101d56110c8565b91165f52600160205273ffffffffffffffffffffffffffffffffffffffff60405f2091165f52602052602060405f2054604051908152f35b5f80fd5b3461020d57602060031936011261020d57602061025361022f6110eb565b73ffffffffffffffffffffffffffffffffffffffff165f525f60205260405f205490565b604051908152f35b3461020d57602060031936011261020d5760206102536102796110eb565b611390565b3461020d57604060031936011261020d576102976110eb565b73ffffffffffffffffffffffffffffffffffffffff602435916102b86113bc565b16805f52600660205260405f205482158015610331575b61030957826102dd91611383565b815f52600660205260405f20555f52600760205261030060405f20918254611376565b90556001600555005b7f1dc930eb000000000000000000000000000000000000000000000000000000005f5260045ffd5b508281106102cf565b61118f565b3461020d5761034d366111d3565b9190506103788273ffffffffffffffffffffffffffffffffffffffff165f525f60205260405f205490565b918282116103a8577f7e14eaec000000000000000000000000000000000000000000000000000000005f5260045ffd5b73ffffffffffffffffffffffffffffffffffffffff907fb94abeec000000000000000000000000000000000000000000000000000000005f521660045260245260445260645ffd5b3461020d57604060031936011261020d576104096110eb565b73ffffffffffffffffffffffffffffffffffffffff6104266110c8565b91165f52600860205273ffffffffffffffffffffffffffffffffffffffff60405f2091165f52602052602060ff60405f2054166040519015158152f35b3461020d57610471366111d3565b91905061047d82611390565b918282116104ad577f7e14eaec000000000000000000000000000000000000000000000000000000005f5260045ffd5b73ffffffffffffffffffffffffffffffffffffffff907ffe9cceec000000000000000000000000000000000000000000000000000000005f521660045260245260445260645ffd5b3461020d57602060031936011261020d57602061025360043561153c565b3461020d57604060031936011261020d5761053961052f6110eb565b602435903361168c565b602060405160018152f35b3461020d57610552366111d3565b61055d9291926113bc565b73ffffffffffffffffffffffffffffffffffffffff811680331415908161070a575b506106e2576105936020916105ea936113f5565b6040517fa9059cbb00000000000000000000000000000000000000000000000000000000815273ffffffffffffffffffffffffffffffffffffffff9094166004850152602484018190529291829081906044820190565b03815f73ffffffffffffffffffffffffffffffffffffffff7f0000000000000000000000000000000000000000000000000000000000000000165af19081156106d7575f916106a8575b501561064a576020906001600555604051908152f35b60646040517f08c379a000000000000000000000000000000000000000000000000000000000815260206004820152601360248201527f41535345545f5452414e534645525f4641494c000000000000000000000000006044820152fd5b6106ca915060203d6020116106d0575b6106c28183611245565b81019061135e565b82610634565b503d6106b8565b6040513d5f823e3d90fd5b7f23019e67000000000000000000000000000000000000000000000000000000005f5260045ffd5b90505f52600860205260405f2073ffffffffffffffffffffffffffffffffffffffff33165f5260205260ff60405f205416158461057f565b3461020d575f60031936011261020d576040515f6004548060011c90600181168015610873575b6020831081146108465782855290811561080457506001146107a6575b6107a28361079681850382611245565b6040519182918261110e565b0390f35b91905060045f527f8a35acfbc15ff81a39ae7d344fd709f28e8600b4aa8c65c6b64bfe7fe36bd19b915f905b8082106107ea57509091508101602001610796610786565b9192600181602092548385880101520191019092916107d2565b7fffffffffffffffffffffffffffffffffffffffffffffffffffffffffffffff001660208086019190915291151560051b840190910191506107969050610786565b7f4e487b71000000000000000000000000000000000000000000000000000000005f52602260045260245ffd5b91607f1691610769565b3461020d57604060031936011261020d57602060043561025361089e6110c8565b916108a88161153c565b809333611782565b3461020d576108be366111d3565b6108c99291926113bc565b8115610309577f1fdc681a13d8c5da54e301c7ce6542dcde4581e4725043fdab2db12ddc57450673ffffffffffffffffffffffffffffffffffffffff805f9561091386338761156a565b61091e86308761168c565b1692838652600660205260408620610937868254611376565b9055604080513381526020810196909652911693a4600160055560206040515f8152f35b3461020d57602060031936011261020d5773ffffffffffffffffffffffffffffffffffffffff6109896110eb565b165f526007602052602060405f2054604051908152f35b3461020d57604060031936011261020d5760206004356102536109c16110c8565b6109ca83611986565b92839133611782565b3461020d57604060031936011261020d576109ec6110eb565b6024359081151580920361020d57335f52600860205273ffffffffffffffffffffffffffffffffffffffff60405f2091165f5260205260405f209060ff7fffffffffffffffffffffffffffffffffffffffffffffffffffffffffffffff008354169116179055602060405160018152f35b611156565b3461020d57602060031936011261020d5773ffffffffffffffffffffffffffffffffffffffff610a906110eb565b165f526006602052602060405f2054604051908152f35b3461020d575f60031936011261020d57602060405173ffffffffffffffffffffffffffffffffffffffff7f0000000000000000000000000000000000000000000000000000000000000000168152f35b3461020d575f60031936011261020d5760ff7f00000000000000000000000000000000000000000000000000000000000000001660ff8111610b3e57602090604051908152f35b7f4e487b71000000000000000000000000000000000000000000000000000000005f52601160045260245ffd5b3461020d57606060031936011261020d57610539610b876110eb565b610b8f6110c8565b60443591610b9e83338361156a565b61168c565b3461020d575f60031936011261020d576020600254604051908152f35b3461020d57604060031936011261020d57610bd96110eb565b602435903315610c7b5773ffffffffffffffffffffffffffffffffffffffff16908115610c4f57335f52600160205260405f20825f526020528060405f20556040519081527f8c5be1e5ebec7d5bd14f71427d1e84f3dd0314c0f7b2291e5b200ac8c7c3b92560203392a3602060405160018152f35b7f94280d62000000000000000000000000000000000000000000000000000000005f525f60045260245ffd5b7fe602df05000000000000000000000000000000000000000000000000000000005f525f60045260245ffd5b3461020d57602060031936011261020d57602061025360043561150f565b3461020d575f60031936011261020d576040515f6003548060011c90600181168015610d76575b602083108114610846578285529081156108045750600114610d18576107a28361079681850382611245565b91905060035f527fc2575a0e9e593c00f959f8c92f12db2869c3395a3b0502d05e2516446f71f85b915f905b808210610d5c57509091508101602001610796610786565b919260018160209254838588010152019101909291610d44565b91607f1691610cec565b60e060031936011261020d57610d946110c8565b60443573ffffffffffffffffffffffffffffffffffffffff81169081810361020d5760643563ffffffff811680910361020d5760a4359267ffffffffffffffff841161020d573660238501121561020d5783600401359267ffffffffffffffff841161020d57366024858701011161020d5760c4359173ffffffffffffffffffffffffffffffffffffffff831680930361020d57610e306113bc565b80331415908161100b575b506106e257610e4c906004356113f5565b946084358610610309576040517f095ea7b300000000000000000000000000000000000000000000000000000000815273ffffffffffffffffffffffffffffffffffffffff831660048201526024810187905293602085806044810103815f73ffffffffffffffffffffffffffffffffffffffff7f0000000000000000000000000000000000000000000000000000000000000000165af19384156106d7577fffffffffffffffffffffffffffffffffffffffffffffffffffffffffffffffe0601f60a49360409873ffffffffffffffffffffffffffffffffffffffff98610fee575b508060248a519b8c9a8b998a987f2f7a44b5000000000000000000000000000000000000000000000000000000008a5260048a015216828801528d60448801526080606488015282608488015201868601375f8582860101520116810103019134905af180156106d757610fae575b6020826001600555604051908152f35b6040813d604011610fe6575b81610fc760409383611245565b8101031261020d575167ffffffffffffffff81160361020d5781610f9e565b3d9150610fba565b6110069060203d6020116106d0576106c28183611245565b610f2f565b90505f52600860205260405f2073ffffffffffffffffffffffffffffffffffffffff33165f5260205260ff60405f2054161587610e3b565b3461020d57602060031936011261020d576004357fffffffff00000000000000000000000000000000000000000000000000000000811680910361020d576020907fe3bc4e650000000000000000000000000000000000000000000000000000000060405191148152f35b3461020d575f60031936011261020d5760206102536112b3565b6024359073ffffffffffffffffffffffffffffffffffffffff8216820361020d57565b6004359073ffffffffffffffffffffffffffffffffffffffff8216820361020d57565b7fffffffffffffffffffffffffffffffffffffffffffffffffffffffffffffffe0601f602060409481855280519182918282880152018686015e5f8582860101520116010190565b3461020d57602060031936011261020d577f7e14eaec000000000000000000000000000000000000000000000000000000005f5260045ffd5b3461020d57602060031936011261020d576111a86110eb565b5060206040517fffffffffffffffffffffffffffffffffffffffffffffffffffffffffffffffff8152f35b600319606091011261020d576004359060243573ffffffffffffffffffffffffffffffffffffffff8116810361020d579060443573ffffffffffffffffffffffffffffffffffffffff8116810361020d5790565b3461020d57602060031936011261020d576020610253600435611986565b90601f7fffffffffffffffffffffffffffffffffffffffffffffffffffffffffffffffe0910116810190811067ffffffffffffffff82111761128657604052565b7f4e487b71000000000000000000000000000000000000000000000000000000005f52604160045260245ffd5b6040517f70a0823100000000000000000000000000000000000000000000000000000000815230600482015260208160248173ffffffffffffffffffffffffffffffffffffffff7f0000000000000000000000000000000000000000000000000000000000000000165afa9081156106d7575f9161132f575090565b90506020813d602011611356575b8161134a60209383611245565b8101031261020d575190565b3d915061133d565b9081602091031261020d5751801515810361020d5790565b91908201809211610b3e57565b91908203918211610b3e57565b73ffffffffffffffffffffffffffffffffffffffff165f525f6020526113b960405f205461150f565b90565b6002600554146113cd576002600555565b7f3ee5aeb5000000000000000000000000000000000000000000000000000000005f5260045ffd5b919073ffffffffffffffffffffffffffffffffffffffff16805f52600760205260405f205483158015611506575b610309578361143191611383565b905f52600760205260405f20556114478261150f565b9130156114da57305f525f60205260405f20548181106114a85790805f923084528360205203604083205580600254036002556040519081527fddf252ad1be2c89b69c2b068fc378daa952ba7f163c4a11628f55a4df523b3ef60203092a3565b7fe450d38c000000000000000000000000000000000000000000000000000000005f523060045260245260445260645ffd5b7f96c6fd1e000000000000000000000000000000000000000000000000000000005f525f60045260245ffd5b50808411611423565b6115176112b3565b9060018201809211610b3e5760025460018101809111610b3e576113b9925f926119af565b6115446112b3565b9060018201809211610b3e5760025460018101809111610b3e576113b9926001926119af565b73ffffffffffffffffffffffffffffffffffffffff909291921691825f52600160205260405f2073ffffffffffffffffffffffffffffffffffffffff82165f5260205260405f2054927fffffffffffffffffffffffffffffffffffffffffffffffffffffffffffffffff84036115e1575b50505050565b828410611642578015610c7b5773ffffffffffffffffffffffffffffffffffffffff821615610c4f575f52600160205273ffffffffffffffffffffffffffffffffffffffff60405f2091165f5260205260405f20910390555f8080806115db565b5073ffffffffffffffffffffffffffffffffffffffff83917ffb8f41b2000000000000000000000000000000000000000000000000000000005f521660045260245260445260645ffd5b73ffffffffffffffffffffffffffffffffffffffff169081156114da5773ffffffffffffffffffffffffffffffffffffffff1691821561175657815f525f60205260405f205481811061172457817fddf252ad1be2c89b69c2b068fc378daa952ba7f163c4a11628f55a4df523b3ef92602092855f525f84520360405f2055845f525f825260405f20818154019055604051908152a3565b827fe450d38c000000000000000000000000000000000000000000000000000000005f5260045260245260445260645ffd5b7fec442f05000000000000000000000000000000000000000000000000000000005f525f60045260245ffd5b91906040515f8073ffffffffffffffffffffffffffffffffffffffff60208401967f23b872dd0000000000000000000000000000000000000000000000000000000088521695866024850152306044850152856064850152606484526117e9608485611245565b73ffffffffffffffffffffffffffffffffffffffff7f00000000000000000000000000000000000000000000000000000000000000001693519082855af13d1561197a573d67ffffffffffffffff811161128657611887916040519161187760207fffffffffffffffffffffffffffffffffffffffffffffffffffffffffffffffe0601f8401160184611245565b82523d5f602084013e5b83611b27565b805190811515918261195f575b5050611934575073ffffffffffffffffffffffffffffffffffffffff16928315611756577fdcbc1c05240f31ff3ad067ef1ee35ce4997762752e3a095284754544f4c709d791816118e9604093600254611376565b600255855f525f602052825f20818154019055855f7fddf252ad1be2c89b69c2b068fc378daa952ba7f163c4a11628f55a4df523b3ef60208651858152a382519182526020820152a3565b7f5274afe7000000000000000000000000000000000000000000000000000000005f5260045260245ffd5b611972925060208091830101910161135e565b155f80611894565b61188790606090611881565b6002549060018201809211610b3e5761199d6112b3565b60018101809111610b3e576113b9925f925b91906119bc828285611a5a565b936004811015611a2d5760018091161492836119eb575b5050506119dd5790565b60018101809111610b3e5790565b909180935015611a00570915155f80806119d3565b7f4e487b71000000000000000000000000000000000000000000000000000000005f52601260045260245ffd5b7f4e487b71000000000000000000000000000000000000000000000000000000005f52602160045260245ffd5b9091828202917fffffffffffffffffffffffffffffffffffffffffffffffffffffffffffffffff84820993838086109503948086039514611b195784831115611af157829109815f0382168092046002816003021880820260020302808202600203028082026002030280820260020302808202600203028091026002030293600183805f03040190848311900302920304170290565b7f227bc153000000000000000000000000000000000000000000000000000000005f5260045ffd5b505080925015611a00570490565b90611b645750805115611b3c57805190602001fd5b7f1425ea42000000000000000000000000000000000000000000000000000000005f5260045ffd5b81511580611bb7575b611b75575090565b73ffffffffffffffffffffffffffffffffffffffff907f9996b315000000000000000000000000000000000000000000000000000000005f521660045260245ffd5b50803b15611b6d56fea2646970667358221220d5a7b83d809eeb223e0529f7ef315cc41685d8cb9cb4534c279489ac4b7038a864736f6c634300081c0033","linkReferences":{}},"methodIdentifiers":{"allowance(address,address)":"dd62ed3e","approve(address,uint256)":"095ea7b3","asset()":"38d52e0f","balanceOf(address)":"70a08231","claimRedeem(uint256,address,address)":"a4b31e9d","claimRedeemToChain(uint256,address,address,uint32,uint256,bytes,address)":"06347c63","claimableRedeem(address)":"74c0fddb","convertToAssets(uint256)":"07a2d13a","convertToShares(uint256)":"c6e6f592","decimals()":"313ce567","deposit(uint256,address)":"6e553f65","isOperator(address,address)":"b6363cf2","managerMarkClaimable(address,uint256)":"cb06ba66","maxDeposit(address)":"402d267d","maxMint(address)":"c63d75b6","maxRedeem(address)":"d905777e","maxWithdraw(address)":"ce96cb77","mint(uint256,address)":"94bf804d","name()":"06fdde03","operatorApproval(address,address)":"a9fb2d81","pendingRedeem(address)":"40bc782e","previewDeposit(uint256)":"ef8b30f7","previewMint(uint256)":"b3d7f6b9","previewRedeem(uint256)":"4cdad506","previewWithdraw(uint256)":"0a28a477","redeem(uint256,address,address)":"ba087652","requestRedeem(uint256,address,address)":"7d41c86e","setOperator(address,bool)":"558a7297","supportsInterface(bytes4)":"01ffc9a7","symbol()":"95d89b41","totalAssets()":"01e1d114","totalSupply()":"18160ddd","transfer(address,uint256)":"a9059cbb","transferFrom(address,address,uint256)":"23b872dd","withdraw(uint256,address,address)":"b460af94"},"id":4}