{"abi":[{"type":"constructor","inputs":[{"name":"endpoint","type":"address","internalType":"address"},{"name":"_shareOFT","type":"address","internalType":"address"}],"stateMutability":"nonpayable"},{"type":"function","name":"claimSendAssets","inputs":[{"name":"controller","type":"address","internalType":"address"},{"name":"receiver","type":"address","internalType":"address"},{"name":"shares","type":"uint256","internalType":"uint256"},{"name":"dstEid","type":"uint32","internalType":"uint32"},{"name":"minAssets","type":"uint256","internalType":"uint256"},{"name":"options","type":"bytes","internalType":"bytes"}],"outputs":[],"stateMutability":"payable"},{"type":"function","name":"claimSendUsdcFast","inputs":[{"name":"controller","type":"address","internalType":"address"},{"name":"mintRecipient","type":"address","internalType":"address"},{"name":"shares","type":"uint256","internalType":"uint256"},{"name":"destDomain","type":"uint32","internalType":"uint32"},{"name":"maxFee","type":"uint256","internalType":"uint256"},{"name":"minFinality","type":"uint32","internalType":"uint32"},{"name":"destCaller","type":"address","internalType":"address"},{"name":"hookData","type":"bytes","internalType":"bytes"},{"name":"minAssets","type":"uint256","internalType":"uint256"}],"outputs":[],"stateMutability":"payable"},{"type":"function","name":"depositUsdcFast","inputs":[{"name":"amountAssets","type":"uint256","internalType":"uint256"},{"name":"destDomain","type":"uint32","internalType":"uint32"},{"name":"depositReceiver","type":"address","internalType":"address"},{"name":"maxFee","type":"uint256","internalType":"uint256"},{"name":"minFinality","type":"uint32","internalType":"uint32"},{"name":"destCaller","type":"address","internalType":"address"},{"name":"hookData","type":"bytes","internalType":"bytes"}],"outputs":[],"stateMutability":"payable"},{"type":"function","name":"endpoint","inputs":[],"outputs":[{"name":"","type":"address","internalType":"contract ILayerZeroEndpointV2"}],"stateMutability":"view"},{"type":"function","name":"hubComposerB32","inputs":[],"outputs":[{"name":"","type":"bytes32","internalType":"bytes32"}],"stateMutability":"view"},{"type":"function","name":"hubEid","inputs":[],"outputs":[{"name":"","type":"uint32","internalType":"uint32"}],"stateMutability":"view"},{"type":"function","name":"lzReceiveGas","inputs":[],"outputs":[{"name":"","type":"uint128","internalType":"uint128"}],"stateMutability":"view"},{"type":"function","name":"lzReceiveValue","inputs":[],"outputs":[{"name":"","type":"uint128","internalType":"uint128"}],"stateMutability":"view"},{"type":"function","name":"oAppVersion","inputs":[],"outputs":[{"name":"senderVersion","type":"uint64","internalType":"uint64"},{"name":"receiverVersion","type":"uint64","internalType":"uint64"}],"stateMutability":"view"},{"type":"function","name":"owner","inputs":[],"outputs":[{"name":"","type":"address","internalType":"address"}],"stateMutability":"view"},{"type":"function","name":"peers","inputs":[{"name":"eid","type":"uint32","internalType":"uint32"}],"outputs":[{"name":"peer","type":"bytes32","internalType":"bytes32"}],"stateMutability":"view"},{"type":"function","name":"renounceOwnership","inputs":[],"outputs":[],"stateMutability":"nonpayable"},{"type":"function","name":"requestRedeemOnSpoke","inputs":[{"name":"controller","type":"address","internalType":"address"},{"name":"shares","type":"uint256","internalType":"uint256"}],"outputs":[],"stateMutability":"payable"},{"type":"function","name":"setDefaultLzReceive","inputs":[{"name":"gas","type":"uint128","internalType":"uint128"},{"name":"value","type":"uint128","internalType":"uint128"}],"outputs":[],"stateMutability":"nonpayable"},{"type":"function","name":"setDelegate","inputs":[{"name":"_delegate","type":"address","internalType":"address"}],"outputs":[],"stateMutability":"nonpayable"},{"type":"function","name":"setHub","inputs":[{"name":"_hubEid","type":"uint32","internalType":"uint32"},{"name":"hubComposer","type":"address","internalType":"address"}],"outputs":[],"stateMutability":"nonpayable"},{"type":"function","name":"setPeer","inputs":[{"name":"_eid","type":"uint32","internalType":"uint32"},{"name":"_peer","type":"bytes32","internalType":"bytes32"}],"outputs":[],"stateMutability":"nonpayable"},{"type":"function","name":"shareOFT","inputs":[],"outputs":[{"name":"","type":"address","internalType":"contract IShareOFT"}],"stateMutability":"view"},{"type":"function","name":"transferOwnership","inputs":[{"name":"newOwner","type":"address","internalType":"address"}],"outputs":[],"stateMutability":"nonpayable"},{"type":"event","name":"OwnershipTransferred","inputs":[{"name":"previousOwner","type":"address","indexed":true,"internalType":"address"},{"name":"newOwner","type":"address","indexed":true,"internalType":"address"}],"anonymous":false},{"type":"event","name":"PeerSet","inputs":[{"name":"eid","type":"uint32","indexed":false,"internalType":"uint32"},{"name":"peer","type":"bytes32","indexed":false,"internalType":"bytes32"}],"anonymous":false},{"type":"error","name":"AddressEmptyCode","inputs":[{"name":"target","type":"address","internalType":"address"}]},{"type":"error","name":"AddressInsufficientBalance","inputs":[{"name":"account","type":"address","internalType":"address"}]},{"type":"error","name":"FailedInnerCall","inputs":[]},{"type":"error","name":"InvalidDelegate","inputs":[]},{"type":"error","name":"InvalidEndpointCall","inputs":[]},{"type":"error","name":"InvalidOptionType","inputs":[{"name":"optionType","type":"uint16","internalType":"uint16"}]},{"type":"error","name":"LzTokenUnavailable","inputs":[]},{"type":"error","name":"NoPeer","inputs":[{"name":"eid","type":"uint32","internalType":"uint32"}]},{"type":"error","name":"NotEnoughNative","inputs":[{"name":"msgValue","type":"uint256","internalType":"uint256"}]},{"type":"error","name":"OnlyPeer","inputs":[{"name":"eid","type":"uint32","internalType":"uint32"},{"name":"sender","type":"bytes32","internalType":"bytes32"}]},{"type":"error","name":"OwnableInvalidOwner","inputs":[{"name":"owner","type":"address","internalType":"address"}]},{"type":"error","name":"OwnableUnauthorizedAccount","inputs":[{"name":"account","type":"address","internalType":"address"}]},{"type":"error","name":"SafeCastOverflowedUintDowncast","inputs":[{"name":"bits","type":"uint8","internalType":"uint8"},{"name":"value","type":"uint256","internalType":"uint256"}]},{"type":"error","name":"SafeERC20FailedOperation","inputs":[{"name":"token","type":"address","internalType":"address"}]}],"bytecode":{"object":"0x60c08060405234610132576040816119a8803803809161001f8285610149565b8339810103126101325761003e602061003783610180565b9201610180565b903315610136575f8054336001600160a01b0319821681178355604051939290916001600160a01b0316907f8be0079c531659141344cd1fd0a4f28419497f9722a3daafe3b4186f6b6457e09080a36001600160a01b03166080819052803b1561013257816024815f809463ca5eb5e160e01b83523360048401525af1801561012757610117575b50620493e06004556001600160a01b031660a0526040516118139081610195823960805181818161052d0152818161078a0152818161122c01526114be015260a0518181816106f401526108510152f35b5f61012191610149565b5f6100c6565b6040513d5f823e3d90fd5b5f80fd5b631e4fbdf760e01b5f525f60045260245ffd5b601f909101601f19168101906001600160401b0382119082101761016c57604052565b634e487b7160e01b5f52604160045260245ffd5b51906001600160a01b03821682036101325756fe60806040526004361015610011575f80fd5b5f3560e01c8063047b557a1461014457806317442b701461013f5780633400288b1461013a5780633a295852146101355780633debe62b146101305780634600f17c1461012b5780635a223d49146101265780635c5aa9f8146101215780635e280f111461011c578063715018a6146101175780637d3145b6146101125780638da5cb5b1461010d578063b3ef15ef14610108578063bb0b6a5314610103578063ca5eb5e1146100fe578063ec0394bc146100f9578063efe4c4c1146100f4578063f2fde38b146100ef5763f4f1ceb1146100ea575f80fd5b610a06565b610934565b610905565b61081e565b61074d565b610718565b6106c8565b610696565b6105cd565b610551565b610501565b61039f565b61031c565b6102ad565b610290565b610212565b6101e3565b610177565b610157565b5f91031261015357565b5f80fd5b34610153575f60031936011261015357602060045460801c604051908152f35b34610153575f6003193601126101535760408051600181525f6020820152f35b6004359063ffffffff8216820361015357565b6064359063ffffffff8216820361015357565b6024359063ffffffff8216820361015357565b6084359063ffffffff8216820361015357565b34610153576040600319360112610153576102106101ff610197565b610207610e1c565b60243590610e68565b005b34610153576040600319360112610153576004356fffffffffffffffffffffffffffffffff8116809103610153576024356fffffffffffffffffffffffffffffffff81168103610153577fffffffffffffffffffffffffffffffff0000000000000000000000000000000090610286610e1c565b60801b1617600455005b34610153575f600319360112610153576020600354604051908152f35b34610153575f60031936011261015357602063ffffffff60025416604051908152f35b73ffffffffffffffffffffffffffffffffffffffff81160361015357565b9181601f840112156101535782359167ffffffffffffffff8311610153576020838186019501011161015357565b61012060031936011261015357600435610335816102d0565b60243590610342826102d0565b60443561034d6101aa565b9260843560a43563ffffffff811681036101535760c4359161036e836102d0565b60e4359667ffffffffffffffff8811610153576103926102109836906004016102ee565b9690956101043598610c9a565b60e0600319360112610153576004356103b66101bd565b604435916103c3836102d0565b606435916103cf6101d0565b60a435926103dc846102d0565b60c4359167ffffffffffffffff8311610153576102109673ffffffffffffffffffffffffffffffffffffffff6104b39663ffffffff610478946104789a8461043561042e6104a49b36906004016102ee565b3691610b8b565b96846040519c8d9b8c60203391015260408d01521660608b015216608089015260a08801521660c08601521660e084015261010080840152610120830190610eae565b037fffffffffffffffffffffffffffffffffffffffffffffffffffffffffffffffe08101835282610af0565b60405192839160208301610bd3565b60025463ffffffff16906104e86104c8610ef1565b6004546fffffffffffffffffffffffffffffffff81169060801c91610f28565b6104f0610b31565b913483525f60208401523393611175565b34610153575f60031936011261015357602060405173ffffffffffffffffffffffffffffffffffffffff7f0000000000000000000000000000000000000000000000000000000000000000168152f35b34610153575f60031936011261015357610569610e1c565b5f73ffffffffffffffffffffffffffffffffffffffff81547fffffffffffffffffffffffff000000000000000000000000000000000000000081168355167f8be0079c531659141344cd1fd0a4f28419497f9722a3daafe3b4186f6b6457e08280a3005b60c0600319360112610153576004356105e5816102d0565b6024356105f1816102d0565b604435916105fd6101aa565b906084359160a4359167ffffffffffffffff831161015357610478610478956104b39563ffffffff610687956102109a73ffffffffffffffffffffffffffffffffffffffff61065461042e829b36906004016102ee565b956040519a8b991660208a0152166040880152606087015216608085015260a084015260c08084015260e0830190610eae565b60405192839160208301610c07565b34610153575f60031936011261015357602073ffffffffffffffffffffffffffffffffffffffff5f5416604051908152f35b34610153575f60031936011261015357602060405173ffffffffffffffffffffffffffffffffffffffff7f0000000000000000000000000000000000000000000000000000000000000000168152f35b346101535760206003193601126101535763ffffffff610736610197565b165f526001602052602060405f2054604051908152f35b34610153575f60206003193601126101535760043561076b816102d0565b610773610e1c565b73ffffffffffffffffffffffffffffffffffffffff7f00000000000000000000000000000000000000000000000000000000000000001690813b156101535773ffffffffffffffffffffffffffffffffffffffff60245f928360405195869485937fca5eb5e10000000000000000000000000000000000000000000000000000000085521660048401525af180156108195761080d575080f35b61021091505f90610af0565b610e11565b604060031936011261015357600435610836816102d0565b6024359073ffffffffffffffffffffffffffffffffffffffff7f000000000000000000000000000000000000000000000000000000000000000016803b15610153576040517f79cc679000000000000000000000000000000000000000000000000000000000815233600482015260248101849052905f908290604490829084905af180156108195761021093610478936104b3936108dc936108eb575b503390611297565b60405192839160208301610c38565b806108f95f6108ff93610af0565b80610149565b5f6108d4565b34610153575f6003193601126101535760206fffffffffffffffffffffffffffffffff60045416604051908152f35b346101535760206003193601126101535773ffffffffffffffffffffffffffffffffffffffff600435610966816102d0565b61096e610e1c565b1680156109da5773ffffffffffffffffffffffffffffffffffffffff5f54827fffffffffffffffffffffffff00000000000000000000000000000000000000008216175f55167f8be0079c531659141344cd1fd0a4f28419497f9722a3daafe3b4186f6b6457e05f80a3005b7f1e4fbdf7000000000000000000000000000000000000000000000000000000005f525f60045260245ffd5b3461015357604060031936011261015357610210610a22610197565b73ffffffffffffffffffffffffffffffffffffffff602435610a43816102d0565b610a4b610e1c565b63ffffffff83167fffffffffffffffffffffffffffffffffffffffffffffffffffffffff000000006002541617600255169081600355610e68565b7f4e487b71000000000000000000000000000000000000000000000000000000005f52604160045260245ffd5b6060810190811067ffffffffffffffff821117610acf57604052565b610a86565b6040810190811067ffffffffffffffff821117610acf57604052565b90601f7fffffffffffffffffffffffffffffffffffffffffffffffffffffffffffffffe0910116810190811067ffffffffffffffff821117610acf57604052565b60405190610b40604083610af0565b565b60405190610b4060a083610af0565b67ffffffffffffffff8111610acf57601f017fffffffffffffffffffffffffffffffffffffffffffffffffffffffffffffffe01660200190565b929192610b9782610b51565b91610ba56040519384610af0565b829481845281830111610153578281602093845f960137010152565b805191908290602001825e015f815290565b906001610c04927fb10000000000000000000000000000000000000000000000000000000000000081520190610bc1565b90565b906001610c04927fa20000000000000000000000000000000000000000000000000000000000000081520190610bc1565b906001610c04927fa10000000000000000000000000000000000000000000000000000000000000081520190610bc1565b906001610c04927fa30000000000000000000000000000000000000000000000000000000000000081520190610bc1565b97989690989594939291953690610cb092610b8b565b946040519873ffffffffffffffffffffffffffffffffffffffff8a991660208a015273ffffffffffffffffffffffffffffffffffffffff166040890152606088015263ffffffff16608087015260a086015263ffffffff1660c085015273ffffffffffffffffffffffffffffffffffffffff1660e0840152610100830161012090526101408301610d4091610eae565b90610120830152037fffffffffffffffffffffffffffffffffffffffffffffffffffffffffffffffe081018252610d779082610af0565b60405180916020820190610d8a91610c69565b037fffffffffffffffffffffffffffffffffffffffffffffffffffffffffffffffe081018252610dba9082610af0565b60025463ffffffff1690610dcc610ef1565b6004546fffffffffffffffffffffffffffffffff81169060801c90610df092610f28565b610df8610b31565b90348252602082015f90523392610e0e94611175565b50565b6040513d5f823e3d90fd5b73ffffffffffffffffffffffffffffffffffffffff5f54163303610e3c57565b7f118cdaa7000000000000000000000000000000000000000000000000000000005f523360045260245ffd5b7f238399d427b947898edb290f5ff0f9109849b1c3ba196a42e35f00c50a54b98b9163ffffffff6040921690815f52600160205280835f205582519182526020820152a1565b907fffffffffffffffffffffffffffffffffffffffffffffffffffffffffffffffe0601f602080948051918291828752018686015e5f8582860101520116010190565b6040517e03000000000000000000000000000000000000000000000000000000000000602082015260028152610c04602282610af0565b90929192600361ffff610f3a84611304565b1603610feb57610c0492936fffffffffffffffffffffffffffffffff8116155f14610fa357507fffffffffffffffffffffffffffffffff000000000000000000000000000000006040519160801b16602082015260108152610f9d603082610af0565b90611372565b7fffffffffffffffffffffffffffffffff0000000000000000000000000000000090816040519360801b16602084015260801b16603082015260208152610f9d604082610af0565b61ffff610ff783611304565b7f3a51740d000000000000000000000000000000000000000000000000000000005f521660045260245ffd5b6040519061103082610ab3565b815f81525f6020820152604080519161104883610ad4565b5f83525f60208401520152565b8091039060808212610153576040519161106e83610ab3565b81518352602082015167ffffffffffffffff81168103610153576040917fffffffffffffffffffffffffffffffffffffffffffffffffffffffffffffffc09160208601520112610153576060604051916110c783610ad4565b6040810151835201516020820152604082015290565b9073ffffffffffffffffffffffffffffffffffffffff6020919493946040845263ffffffff81511660408501528281015160608501526080611164611130604084015160a08489015260e0880190610eae565b60608401517fffffffffffffffffffffffffffffffffffffffffffffffffffffffffffffffc08883030160a0890152610eae565b910151151560c08501529416910152565b6111de608094926112139694611189611023565b5060206111968651611471565b950191825180611288575b506111ab856115bc565b92511515926111c76111bb610b42565b63ffffffff9097168752565b602086015260408501526060840152151585830152565b6040518095819482937f2637a450000000000000000000000000000000000000000000000000000000008452600484016110dd565b039173ffffffffffffffffffffffffffffffffffffffff7f0000000000000000000000000000000000000000000000000000000000000000165af1908115610819575f9161125f575090565b610c04915060803d608011611281575b6112798183610af0565b810190611055565b503d61126f565b611291906114a7565b5f6111a1565b610478610c0492936040519485936020850173ffffffffffffffffffffffffffffffffffffffff6040929594938160608401971683521660208201520152565b7f4e487b71000000000000000000000000000000000000000000000000000000005f52601160045260245ffd5b6002815110611314576002015190565b60646040517f08c379a000000000000000000000000000000000000000000000000000000000815260206004820152601460248201527f746f55696e7431365f6f75744f66426f756e64730000000000000000000000006044820152fd5b90600361ffff61138184611304565b1603610feb57805161ffff81116114415761ffff60019116019161ffff831161143c57610478610c049260046113e2957fffff0000000000000000000000000000000000000000000000000000000000006040519788966020880190610bc1565b917f0100000000000000000000000000000000000000000000000000000000000000835260f01b1660018201527f010000000000000000000000000000000000000000000000000000000000000060038201520190610bc1565b6112d7565b7f6dfcc650000000000000000000000000000000000000000000000000000000005f52601060045260245260445ffd5b80340361147b5790565b7f9f704120000000000000000000000000000000000000000000000000000000005f523460045260245ffd5b73ffffffffffffffffffffffffffffffffffffffff7f000000000000000000000000000000000000000000000000000000000000000016906040517fe4fe1d94000000000000000000000000000000000000000000000000000000008152602081600481865afa8015610819575f9061156d575b73ffffffffffffffffffffffffffffffffffffffff91501691821561154557610b40923390611605565b7f5373352a000000000000000000000000000000000000000000000000000000005f5260045ffd5b506020813d6020116115b4575b8161158760209383610af0565b810103126101535773ffffffffffffffffffffffffffffffffffffffff90516115af816102d0565b61151b565b3d915061157a565b63ffffffff16805f52600160205260405f20549081156115da575090565b7ff6ff4fb7000000000000000000000000000000000000000000000000000000005f5260045260245ffd5b6040517f23b872dd000000000000000000000000000000000000000000000000000000006020820190815273ffffffffffffffffffffffffffffffffffffffff938416602483015293831660448201526064808201959095529384526116ab925f928392611674608488610af0565b1694519082865af13d15611724573d9061168d82610b51565b9161169b6040519384610af0565b82523d5f602084013e5b83611744565b8051908115159182611702575b50506116c15750565b7f5274afe7000000000000000000000000000000000000000000000000000000005f5273ffffffffffffffffffffffffffffffffffffffff1660045260245ffd5b61171d92509060208061171993830101910161172c565b1590565b5f806116b8565b6060906116a5565b90816020910312610153575180151581036101535790565b90611781575080511561175957805190602001fd5b7f1425ea42000000000000000000000000000000000000000000000000000000005f5260045ffd5b815115806117d4575b611792575090565b73ffffffffffffffffffffffffffffffffffffffff907f9996b315000000000000000000000000000000000000000000000000000000005f521660045260245ffd5b50803b1561178a56fea264697066735822122002149ea9d30815aeb27fd72a7b60b492ac73d138b1af2eabf32d3c4c9120b6c064736f6c634300081c0033","linkReferences":{}},"methodIdentifiers":{"claimSendAssets(address,address,uint256,uint32,uint256,bytes)":"7d3145b6","claimSendUsdcFast(address,address,uint256,uint32,uint256,uint32,address,bytes,uint256)":"5a223d49","depositUsdcFast(uint256,uint32,address,uint256,uint32,address,bytes)":"5c5aa9f8","endpoint()":"5e280f11","hubComposerB32()":"3debe62b","hubEid()":"4600f17c","lzReceiveGas()":"efe4c4c1","lzReceiveValue()":"047b557a","oAppVersion()":"17442b70","owner()":"8da5cb5b","peers(uint32)":"bb0b6a53","renounceOwnership()":"715018a6","requestRedeemOnSpoke(address,uint256)":"ec0394bc","setDefaultLzReceive(uint128,uint128)":"3a295852","setDelegate(address)":"ca5eb5e1","setHub(uint32,address)":"f4f1ceb1","setPeer(uint32,bytes32)":"3400288b","shareOFT()":"b3ef15ef","transferOwnership(address)":"f2fde38b"},"id":3}